:020000040800F2
:10000000A884002049010008ED970008217300082A
:100010005183000819530008E9CC000800000000D3
:1000200000000000000000000000000031BE0008D9
:10003000AD550008000000004DB20008A1C0000846
:100040006301000863010008630100086301000800
:1000500063010008630100080D59000863010008EE
:1000600063010008630100086301000863010008E0
:1000700063010008630100086301000863010008D0
:1000800063010008630100086301000863010008C0
:100090000DCA00086301000863010008630100083D
:1000A00063010008630100086301000863010008A0
:1000B0006301000863010008630100086301000890
:1000C0006301000863010008630100086301000880
:1000D00063010008F5C800084DC90008ADC9000853
:1000E0006301000863010008630100086301000860
:1000F0006301000863010008630100086301000850
:10010000630100086301000863010008630100083F
:1001100035C8000895C8000863010008630100089D
:10012000630100086301000863010008630100081F
:10013000DFF810D000F010FC00480047C9DF0008CD
:10014000AFF30080A8840020064880470648004797
:10015000FEE7FEE7FEE7FEE7FEE7FEE7FEE7FEE777
:10016000FEE7FEE7ADC000083101000840EA0103E8
:100170009B0703D009E008C9121F08C0042AFAD25D
:1001800003E011F8013B00F8013B521EF9D2704721
:10019000D2B201E000F8012B491EFBD270470022C9
:1001A000F6E710B513460A4604461946FFF7F0FF76
:1001B000204610BD30B505462A460B4612F8010B05
:1001C00013F8014B08B1A042F8D01CB1002802D0AE
:1001D0006D1CF1E7284630BD421C10F8011B0029B8
:1001E000FBD1801A704770B506460CF0C3FD046859
:1001F00005460A220021304600F0B1FA2C6070BD9D
:1002000080EA010210B502F00043400022D04A000B
:100210001FD0010E01EB1261C0F35600C2F356026B
:1002200040F4000042F40002A0FB022000047F39E9
:10023000140400D0401C50EA124001D44000491E72
:10024000C2B20C0604EBD010401C4008802A02D039
:1002500003E0002010BD20F00100002900DA00209A
:10026000184310BD30B480EA010202F0004530F0BE
:10027000004221F0004013D090B1C30DD40DC2F361
:100280001601C0F31600E41A41F4000140F4000224
:100290007D34914201D3641C00E04900002C02DA55
:1002A00030BC002070474FF400000023914201D37E
:1002B000891A034340084FEA4101F7D151B19142F5
:1002C00002D14FF0004105E002D24FF0010101E000
:1002D0006FF0010103EBC450284430BC00F077BA42
:1002E0002DE9FE4F804681EA0300C00F0C460090C6
:1002F00021F0004123F00045B8EB0200A94105D2EE
:100300004046214690461C460B46024623F00040DC
:10031000104347D0270DC7F30A00C3F30A510290D8
:10032000401A019040286BDAC3F3130040F4801B9D
:100330000098924620B10023D2EB030A63EB0B0B2B
:1003400001985946C0F14002504600F0D7F90646E0
:100350000D4650465946019A00F0EFF910EB08009F
:100360006141002487EA115284EAE7731A4340D0BE
:10037000009A62B3019A012A4FEA075215DC001B6A
:1003800061EB02014FF0004202EA0752CDE9004260
:10039000001C41F5801132462B4600F05EFA03B096
:1003A000BDE8F08F40462146F9E7001B61EB0201F2
:1003B000001C41F5801300185B412018A2F50017BE
:1003C00047EB030140EAD570B6196D4111E06D08A5
:1003D0004FEA360645EAC0754FEA0752001B61EB4B
:1003E0000201001C41F5801149084FEA3000001954
:1003F000514132462B4603B0BDE8F04F00F01EBA23
:100400000098012240000023D0EB020263EBE0736E
:10041000009821464FEAE074B8EB000061EB04015C
:10042000E9E783F000435BE781F0004158E72DE9FD
:10043000FE4F81EA030404F0004421F000410094DF
:100440004FF0000B23F0004350EA01045ED052EA63
:1004500003045BD0C3F30A54C1F30A552C44A4F23D
:10046000F3340194A0FB0254C1F3130141F4801151
:10047000C3F3130343F4801301FB024400FB034E58
:10048000840A970A44EA815447EA8357A4FB076821
:1004900002958D0A05FB07854FEA932C04FB0C544B
:1004A0002705029D4FEA065847EA1637B5EB0805BF
:1004B0006EEB070C870E920E47EA811742EA831211
:1004C000A7FB0201B6EB0B0164EB00042B0D43EA22
:1004D0000C335E1844EB1C50DA465146E7FB020130
:1004E000C5F313044FEA0B3343EA14534FEA0432C3
:1004F000019C43EA0603A4F10C040294009CCDE99C
:1005000000B400F0AAF903B0BDE8F08F0020014666
:10051000F9E72DE9F04D81EA030404F0004B21F0E6
:10052000004514464FF0000A23F0004150EA05024E
:1005300020D054EA01021DD0C5F30A570246C5F384
:100540001303C1F31300C1F30A5640F4801543F4BA
:100550008013A7EB0608101BD64608F2FD3873EB94
:10056000050002D308F1010801E092185B41B8F1DF
:10057000000F03DA00200146BDE8F08D00204FF4A3
:100580008011064684460EE0171B73EB050705D362
:10059000121B63EB050306434CEA010C49084FEAC2
:1005A000300092185B4150EA0107EDD152EA030096
:1005B00012D082EA040083EA0501084305D0101B2B
:1005C000AB4106D20122002306E000224FF0004397
:1005D00002E06FF0010253101AEB06004CEB0851D9
:1005E00010EB0A0041EB0B01BDE8F04D00F026B91D
:1005F00096230022114600F0F3B80EB540F23341C5
:1006000002910021CDE900110A460B4600F025F9C0
:1006100003B000BD20F00040C10DC0F3160040F44F
:1006200000007F2901DA00207047962903DCC1F120
:100630009601C8407047963988407047C1F30A5206
:1006400010B5C1F3130140F2FF3341F480119A4217
:1006500001DA002010BD40F233439A42A2F2334245
:1006600003DC524200F059F810BD904010BD30B587
:100670000B46014600202022012409E021FA02F560
:100680009D4205D303FA02F5491B04FA02F52844FA
:10069000151EA2F10102F1DC30BD2DE9F05F054627
:1006A000002092469B4688460646814640241BE031
:1006B000284641464746224600F02FF853465A4600
:1006C000C01A914110D311461846224600F016F880
:1006D0002D1A67EB01084F4622460120002100F049
:1006E0000DF817EB00094E41201EA4F10104DFDCD8
:1006F000484631462A464346BDE8F09F202A04DB9F
:10070000203A00FA02F1002070479140C2F1200324
:1007100020FA03F3194390407047202A04DB203A63
:1007200021FA02F00021704721FA02F3D040C2F111
:1007300020029140084319467047202A06DBCB1758
:10074000203A41FA02F043EAE07306E041FA02F38C
:10075000D040C2F1200291400843194670472DE96C
:10076000F04791460F4680460446002614F8015B88
:100770002DB100F003F90068405DC007F6D12B2DC4
:1007800002D02D2D18D0641E4A463946204600F06E
:10079000F9F827B13968A14201D1C7F80080710585
:1007A0004FF002040BD54042002803DD0CF0E2FAC2
:1007B0000460A007BDE8F08746F48066E4E70028FF
:1007C000F8DA0CF0D7FA04606FF00040F2E7002985
:1007D000A8BF7047401C490008BF20F001007047C7
:1007E00010B4B0FA80FC00FA0CF050EA010404BF27
:1007F00010BC704749B1CCF1200421FA04F411FA7D
:100800000CF118BF012121430843A3EB0C01CB1DC0
:100810004FEA00614FEA102042BF002010BC704731
:1008200000EBC35010440029A4BF10BC7047401C0B
:10083000490008BF20F0010010BC704710B5141E1D
:1008400073F1000408DA401C41F1000192185B4189
:100850001A4301D120F0010010BD2DE9F04D924660
:100860009B4611B1B1FA81F202E0B0FA80F2203277
:100870009046FFF743FF04460F4640EA0A0041EA6C
:100880000B0153465A46084313D0114653EA010060
:1008900019D0C8F140025046FFF73FFF05460E460B
:1008A000504659464246FFF729FF084305D001202C
:1008B00004E020463946BDE8F08D0020054346EAB5
:1008C000E0762C4337430A986305E40AA0EB08005E
:1008D0000022FD0A44EA47540A3002D500200146AE
:1008E000E9E7010510196941DDE908450019694189
:1008F000BDE8F04DA2E7C1F30A52C1F3130140F283
:10090000FF3341F480119A4202DA00200146704719
:1009100040F233439A42A2F2334202DC5242FFF7E2
:10092000FCBEFFF7EBBE000030B5041E71F1000401
:1009300004DB4FF00044404264EB0101141E73F1EC
:10094000000405DB1C464FF00043524263EB0403F6
:10095000994208BF904230BD064C074D06E0E06862
:1009600040F0010394E8070098471034AC42F6D3F6
:10097000FFF7E2FB0C3601082C36010800487047EF
:10098000D81F01082DE9F05F824600780027154640
:100990008B460AF10104B946302801D09DB113E01D
:1009A00014F8010B0127782803D0582801D045B14D
:1009B0000AE00DB1102D07D10027102514F8010B06
:1009C00002E0082500E00A250026B0460EE005FBFF
:1009D000080005FB06F1012701EB10461FFA80F81D
:1009E000B6F5803F00D3B94614F8010B294600F054
:1009F00018F80028EBDABBF1000F05D00FB1641E28
:100A000000E05446CBF80040B9F1000F06D00CF0DE
:100A1000B1F902210160C81EBDE8F09F48EA064016
:100A2000FAE73A2800D2303820F02002412A01D3D8
:100A3000A2F13700884201D34FF0FF30704770B504
:100A40008C1810F8015B15F0070301D110F8013B79
:100A50002A1106D110F8012B03E010F8016B01F800
:100A6000016B5B1EF9D12B0705D40023521E0DD458
:100A700001F8013BFAE710F8013BCB1A921C03E0A6
:100A800013F8015B01F8015B521EF9D5A142D8D3DE
:100A9000002070BD10B5002400BF20E0C4EBC401ED
:100AA00001EB4421144A02EB810040F61C01FFF7E0
:100AB00076FBC4EBC40101EB44210F4B03EB810235
:100AC00004EB44014FF4806303EB812040F61C01EA
:100AD00004F0CEFE052006F04FFB601CC4B2082CCB
:100AE000DCDB05480068401C20B944F2E001024804
:100AF000FFF755FB10BD00003C1500202DE9F04329
:100B00008BB0002600200A90099015200BF034FCD1
:100B1000002873D015200BF00BFCF948D0F85002D8
:100B2000002862D0F7480088401CF6490880084633
:100B30000088B0F5616F58DB202101A8FFF72FFB7B
:100B4000F1480088C0EBC00101EB4020EF4901EB08
:100B50008007202101A8FFF722FBEB49098801EB60
:100B600041014FF4806202EB8121E94A1288881822
:100B700001AA202104F07CFEE548008807440024F7
:100B80000FE001A8005D395D884208D0022006F020
:100B9000F3FA3A462021480104F090FE03E0601C7D
:100BA00084B2202CEDD300BFD94800882030D8492A
:100BB00008800846008840F61C01884214D30020B3
:100BC000D3490880D0480088401CCF490880CC48D1
:100BD000D0F850020988884206D80020CC49088005
:100BE000C9490880C749088000BF00241FE20227C6
:100BF0004FF000084FF0000900BF3DE01FE24FF04A
:100C000000082EE000200790089007AA41463846C9
:100C100005F09AFA08B304EB4402BE4901EB420026
:100C200007A9FFF7C7FAC0B100200A900990032F67
:100C300008D1B8F1040F05D10AAA4146384605F09B
:100C400001FA07E009AA4146384605F0FBF9BDF86C
:100C500024000A904FF0010907E008F1010000F0BC
:100C6000FF08AD48C05D4045CCDC00BFB9F1000FC6
:100C700000D003E0781CC7B2052FC0DB00BFA74837
:100C800000EB041000683C2814D3C4EBC40101EB52
:100C900044219E4A02EB81003B210BF099F8C4EB02
:100CA000C40101EB4421994A02EB81010A98C1F881
:100CB000EC0012E0994800EB041000683C21B0FB06
:100CC000F1F201FB1200C4EBC40101EB44218F4A95
:100CD00002EB81010A9A41F82020904800EB0410B1
:100CE0000068401C8D4901EB041108608B4800EB43
:100CF0000410006800287DD0884800EB04100068CC
:100D00003C21B0FBF1F201FB1200002872D1002659
:100D100000250BE0C4EBC40000EB44207B4901EB51
:100D2000800050F825000644681C85B23C2DF1DB9C
:100D30007A4800EB041040683C2818D3C4EBC40187
:100D400001EB4421714A02EB810101F1F0003B21EA
:100D50000BF03EF83C20B6FBF0F1C4EBC40000EB16
:100D600044206A4A02EB8000C0F8DC1115E03C2008
:100D7000B6FBF0F1694800EB041040683C22B0FB80
:100D8000F2F302FB1302C4EBC40000EB44205F4B00
:100D900003EB8000F03040F82210604800EB0410B4
:100DA0004068401C5D4901EB041148605B4800EB62
:100DB0000410406800289ED0584800EB041040689A
:100DC0003C21B0FBF1F201FB120000289ED100266D
:100DD00000250CE0C4EBC40000EB44204B4901EBC0
:100DE0008000F03050F825000644681C85B23C2D88
:100DF000F0DB00E0C2E0494800EB041080681828EE
:100E000018D3C4EBC40101EB4421404A02EB810139
:100E100001F5F07017210AF0DBFF3C20B6FBF0F182
:100E2000C4EBC40000EB4420384A02EB8000C0F859
:100E30003C1216E03C20B6FBF0F1384800EB041001
:100E400080681822B0FBF2F302FB1302C4EBC4006B
:100E500000EB44202D4B03EB800000F5F07040F8D0
:100E600022102E4800EB04108068401C2B4901EB37
:100E700004118860294800EB0410806800287DD0A8
:100E8000264800EB041080681821B0FBF1F201FB4A
:100E90001200002872D1002600250DE0C4EBC4002A
:100EA00000EB4420194901EB800000F5F07050F888
:100EB00025000644681C85B2182DEFDB174800EBAF
:100EC00004108089B0F5B67F2ADDC4EBC40101EBC4
:100ED00044210E4A02EB810101F510704FF4B67106
:100EE0000AF076FF1820B6FBF0F1C4EBC40000EB6B
:100EF0004420064A02EB8000C0F8F01728E000000A
:100F00003012002062020020660200203C15002002
:100F10006402002084140020080A0108BC14002088
:100F20001820B6FBF0F1474800EB0410808940F22E
:100F30006D1290FBF2F302FB1302C4EBC40000EB52
:100F40004420414B03EB800000F5107040F8221064
:100F50003C4800EB04108089401C3A4901EB041125
:100F60008881384800EB0410808900285DDD354811
:100F700000EB0410808940F26D1100E038E090FB36
:100F8000F1F201FB120098BB002600250DE0C4EB36
:100F9000C40000EB44202C4901EB800000F51070E8
:100FA00050F825000644681C85B2B5F5B67FEEDD25
:100FB000244800EB0410C0890A281ADBC4EBC401E2
:100FC00001EB4421204A02EB810101F2F470092176
:100FD0000AF0FEFE40F26D10B6FBF0F1C4EBC40067
:100FE00000EB4420184A02EB8000C0F8181813E008
:100FF0001BE040F26D10B6FBF0F1C4EBC40000EB57
:101000004420114A02EB800000F2F4700D4A02EB1A
:101010000412D28940F822100A4800EB0410C0895B
:10102000401C084901EB0411C881601C84B2082CE3
:1010300005DA0648D0F85002A0423FF6D8AD0BB012
:10104000BDE8F083BC1400203C15002030120020C5
:1010500001200149087070474F00002010B502467A
:101060000B4606480088504300EB4004C4EB801058
:10107000000B0A24B0FBF4F188B210BD3800002048
:1010800002460B464FF49600B0FBF2F000F12D0142
:1010900088B27047704700002DE9F0430025002614
:1010A0000027A846A94600240AE0184830F8240082
:1010B0000544164800EB840040880644601CC4B216
:1010C0001E2CF2DB1E20B5FBF0F5B6FBF0F61E2160
:1010D0003046FFF7D5FF0E4908801E212846FFF74E
:1010E000BDFF0C4908800A48008832380A4909883F
:1010F000884209DC0020094908700948407820F03E
:101100002000203006494870BDE8F0835C060020CE
:10111000380000203A0000204C000020A6020020E9
:10112000420200202DE9F04704460D462846FFF70D
:1011300053F8C6B2A019222100F052FBC7B2202FEB
:1011400000DB202720211448FFF729F8A1193A468F
:101150001148FFF70BF81148FFF73EF88046284684
:10116000FFF73AF8C0F180090B48FFF735F8A9EB13
:101170000000801E80450BD20848FFF72DF8074974
:1011800000EB0108044B2A4605A140460BF0DEFDAA
:1011900004F08EFBBDE8F08798120020E20A0020E0
:1011A00025732573222C00002DE9F04704460D46D7
:1011B0002846FFF711F8C6B2A019222100F010FB53
:1011C000C7B2102F00DB10271648002101634163CE
:1011D0008163C163A1193A463030FEF7C7FF124858
:1011E000FEF7FAFF80462846FEF7F6FFC0F18009B9
:1011F0000C483030FEF7F0FFA9EB0000801E804560
:101200000CD20948FEF7E8FF074900EB0108054B3F
:1012100030332A4605A140460BF098FD04F048FB08
:10122000BDE8F08798120020E20A0020257325739C
:10123000222C00002DE9F04704460D462846FEF713
:10124000CBFFC6B2A019222100F0CAFAC7B2102FF4
:1012500000DB102716480021016241628162C162F1
:10126000A1193A462030FEF781FF1248FEF7B4FF7D
:1012700080462846FEF7B0FFC0F180090C482030B8
:10128000FEF7AAFFA9EB0000801E80450CD209489A
:10129000FEF7A2FF074900EB0108054B20332A4661
:1012A00005A140460BF052FD04F002FBBDE8F087BB
:1012B00098120020E20A002025732573222C0000DA
:1012C0002DE9F04704460D462846FEF785FFC6B2D5
:1012D000A019222100F084FAC7B2402F00DB40277A
:1012E00040211448FEF75BFFA1193A461148FEF76A
:1012F0003DFF1148FEF770FF80462846FEF76CFF61
:10130000C0F180090B48FEF767FFA9EB0000801EC3
:1013100080450BD20848FEF75FFF074900EB010844
:10132000044B2A4605A140460BF010FD04F0C0FA1C
:10133000BDE8F087D8120020E20A0020257325734B
:10134000222C000010B590B0044640216846FEF7FC
:1013500026FF40216846FEF722FF012204A16846CD
:101360000BF0F4FC684602F081FC10B010BD0000E8
:1013700041542B43474143543D312C25640D0A0011
:1013800010B590B0044640216846FEF708FF4021A2
:101390006846FEF704FF054A05A168460BF0D6FC37
:1013A000684602F063FC10B010BD000098120020E7
:1013B00041542B434744434F4E543D312C22495016
:1013C000222C222573220D0A00000000F0B585B002
:1013D00005462846FEF700FF86B2002004901A203A
:1013E00003900120029007F061FF401E132804D0F3
:1013F00014280BD0162808D146E02E215B4800F0B7
:101400003FFA012103A800F03BFAACE002F0B8FD7E
:1014100082200490012104A800F032FA5448FEF71B
:10142000DBFEC0B201909DF80400401D0090012138
:10143000684600F025FA00200490012104A800F07D
:101440001FFA01200490012104A800F019FA0020DD
:101450000490012104A800F013FA012101A800F072
:101460000FFA9DF80410424800F00AFA0020049098
:10147000012104A800F004FA0A2005F07DFE0121F4
:1014800003A800F0FDF96EE007F00AFF072814D268
:10149000DFE800F004070A0B0C0D100004F08AFBD3
:1014A0000BE004F087FB08E007E006E005E004F04D
:1014B000C1FE02E004F052FA00BF00BF04F012FEC9
:1014C000074630200490012104A800F0D9F92948EA
:1014D000FEF782FEC0B201903846FEF77DFE84B270
:1014E0009DF804002044801C80B20090BDF80000EC
:1014F0007F2819DDBDF80000C11700EB5161C1F371
:10150000C71102919DF80800401EBDF80010A1EB24
:10151000C01080B200900121684600F0B1F90121AD
:1015200002A800F0ADF903E00121684600F0A8F937
:1015300000200490012104A800F0A2F9012101A8D3
:1015400000F09EF99DF804100A4800F099F90A206D
:1015500005F012FE2146384600F092F9012103A859
:1015600000F08EF900BF00BF05B0F0BD7D00002087
:101570000A0C0020CA0B00200121034A117000212F
:10158000024A1170704700005D0000205C000020DE
:1015900010B5A2B004461648FEF71EFE082821D951
:1015A00013484630FEF718FE88B111484E30FEF75A
:1015B00013FE60B10E494E31A1F10800831F0C4AA1
:1015C000CDE900010BA102A80BF0C0FB06E0084B1F
:1015D0004033074A11A102A80BF0B8FB02A802F0A1
:1015E00045FB03E01548006802F040FB22B010BD47
:1015F000D812002041542B43495053544152543D7A
:1016000022544350222C222573222C222573222C73
:10161000222573222C222573220D0A0041542B43CC
:10162000495053544152543D22544350222C2225B8
:1016300073222C222573220D0A000000780000205E
:1016400010B590B0044640216846FEF7A8FD054A53
:1016500005A168460BF07AFB684602F007FB10B064
:1016600010BD0000D40A002041542B434D47523D89
:1016700025730D0A0000000070B505461A48FEF7F4
:10168000ABFD07280AD81848FEF7A6FD16490844FE
:10169000441E16A120460BF059FB0EE01248FEF73F
:1016A0009BFD7D2809D21048FEF796FD0E4908449F
:1016B000441E11A120460BF049FB0B4802F0D6FA5C
:1016C000022005F059FD01210C4800F0D9F88021D5
:1016D0000548FEF764FD044909A002680A60828893
:1016E0008A808079887170BDE20A00206572726F0D
:1016F000727D0D0A000000007D0D0A006D000020C3
:101700007265706C793A7B0010B5044606A002F051
:10171000ADFA084802F0AAFA07A002F0A7FA1421CD
:101720000448FEF73CFD10BD41542B434D47533D4B
:1017300022000000620B0020220D0A0070B5054651
:1017400000240A2005F018FD70BD000010B5A2B0FD
:1017500004461448FEF740FDE8B112482030FEF779
:101760003BFD78B10F483030FEF736FD50B10D48E3
:101770003030A0F110030B4A0BA1009002A80BF02F
:10178000E5FA04E0074A0FA102A80BF0DFFA02A86D
:1017900002F06CFA03E01148006802F067FA22B028
:1017A00010BD00009812002041542B435354543D67
:1017B000222573222C222573222C222573220D0A26
:1017C0000000000041542B435354543D2225732202
:1017D0002C22222C22220D0A00000000740000207E
:1017E00010B502460B460020002100BF03E0441C58
:1017F000A0B24C1CA1B2545C9C4202D0545C002CA0
:10180000F5D110BD10B500201349087013490870B8
:101810004FF480611248FEF7C2FC002011490860B5
:101820001149086080211148FEF7B9FC0F4810A14A
:101830000A6802608A8882808979817114210E4841
:10184000FEF7ADFC06480D4908600020C8804FF443
:101850008060888010BD00005C0000205D000020DA
:10186000D40600206800002064000020E20A002066
:101870007265706C793A7B00620B002008000020D2
:1018800070B504460D46294620460BF03DF904216B
:1018900003A00BF0E1F9294620460BF0DDF970BDFD
:1018A0004D43553A000000002DE9F04704460D462F
:1018B0002846FEF791FCC6B2A0192221FFF790FF3F
:1018C000C7B2082F00DB08271448002101604160DF
:1018D000A1193A46FEF74AFC1148FEF77DFC804606
:1018E0002846FEF779FCC0F180090C48FEF774FC2D
:1018F000A9EB0000801E80450BD20948FEF76CFC66
:10190000074900EB0108054B2A4606A140460BF0AB
:101910001DFA03F0CDFFBDE8F08700003013002072
:10192000E20A002025732573222C000070B50446BE
:1019300004EB8400144901EB800514480470002076
:10194000134908701148007800B970BD4FF48061E8
:101950001048FEF724FC00200F49C8804FF4806037
:1019600088800C48086000200C4908600C49086019
:10197000E86830B1286820B1312C02DAE96868687B
:10198000884700BFE1E70000A40301085C000020D5
:101990005D000020D4060020080000206800002020
:1019A0006400002010B590B0044640216846FEF760
:1019B000F6FB40216846FEF7F2FB0B480078012851
:1019C00006DB0AA301220CA168460BF0BFF905E073
:1019D0000FA3002208A168460BF0B8F9684602F090
:1019E00045F910B010BD0000AC00002074657374A0
:1019F0006D7174743200000041542B434D515454A6
:101A0000414343513D25642C222573220D0A0000D9
:101A1000746573746D7174743100000010B5A4B0F6
:101A20000446802104A8FEF7BAFB802104A8FEF733
:101A3000B6FB2348007801281DDB2248FEF7CCFBCB
:101A400050B92048801FA0F1400301221EA1009040
:101A500004A80BF07BF92DE01A490831194A901FB0
:101A6000A0F14003CDE901210090012221A104A8A9
:101A70000BF06CF91EE01348A830FEF7ADFB50B92F
:101A80001048A230A0F1400300220FA1009004A84A
:101A90000BF05CF90EE00B49B031A1F10802901F88
:101AA000A0F14003CDE901210090002211A104A87A
:101AB0000BF04CF904A802F0D9F824B010BD0000D6
:101AC000AC0000201E13002041542B434D515454B0
:101AD000434F4E4E4543543D25642C227463703A67
:101AE0002F2F25733A2573222C373230302C312C8E
:101AF0002C0D0A0041542B434D515454434F4E4E2C
:101B00004543543D25642C227463703A2F2F25736E
:101B10003A2573222C373230302C312C2225732277
:101B20002C222573220D0A0070B5054604F0DAFA5E
:101B30000446204602F09AF801A002F097F870BD22
:101B40000D0A000070B5A0B0064680216846FEF779
:101B500026FB04F0C7FA044680216846FEF71FFB07
:101B60001048007801280ADB2046FEF735FB0546C1
:101B70002B4601220CA168460BF0E8F809E020464C
:101B8000FEF72AFB05462B46002207A168460BF00C
:101B9000DDF8684602F06AF84FF47A7005F0ECFA66
:101BA00020B070BDAC00002041542B434D51545423
:101BB0005041594C4F41443D25642C25640D0A0089
:101BC0002DE9F04704460D462846FEF705FBC6B250
:101BD000A0192221FFF704FEC7B20A2F00DB0A2753
:101BE00014480021016041600181A1193A46FEF7C5
:101BF000BDFA1148FEF7F0FA80462846FEF7ECFAE7
:101C0000C0F180090B48FEF7E7FAA9EB0000801E3F
:101C100080450BD20848FEF7DFFA074900EB0108C0
:101C2000044B2A4605A140460BF090F803F040FE15
:101C3000BDE8F08726130020E20A002025732573F3
:101C4000222C000030B5A1B00546802101A8FEF786
:101C5000A6FA802101A8FEF7A2FA04F043FA04468E
:101C600009480078012805DB502208A101A80BF0E3
:101C70006DF804E050220BA101A80BF067F801A851
:101C800001F0F4FF21B030BDAC00002041542B43E3
:101C90004D5154545055423D312C312C25640D0A80
:101CA0000000000041542B434D5154545055423DC7
:101CB000302C312C25640D0A0000000010B50446BC
:101CC000034801F0D3FF03A001F0D0FF10BD0000D6
:101CD0000A0C00200D0A000030B5A1B00546802195
:101CE00001A8FEF75CFA802101A8FEF758FA0F4818
:101CF000007801280ADB0E48FEF76EFA04462346F8
:101D000001220CA101A80BF021F809E00848FEF718
:101D100063FA04462346002206A101A80BF016F838
:101D200001A801F0A3FF21B030BD0000AC000020ED
:101D30000A0C002041542B434D5154545355423DFD
:101D400025642C25642C310D0A00000010B50446D2
:101D5000034801F08BFF03A001F088FF10BD0000D5
:101D60000A0C00200D0A000030B5A1B00546802104
:101D700001A8FEF714FA802101A8FEF710FA0F4817
:101D8000007801280ADB0E48FEF726FA04462346AF
:101D900001220CA101A80AF0D9FF09E00848FEF7CA
:101DA0001BFA04462346002206A101A80AF0CEFF32
:101DB00001A801F05BFF21B030BD0000AC000020A5
:101DC0000A0C002041542B434D5154545355425456
:101DD0004F5049433D25642C25642C310D0A0000E9
:101DE00010B50446034801F041FF03A001F03EFF97
:101DF00010BD0000CA0B00200D0A000030B5A1B0D4
:101E00000546802101A8FEF7CAF9802101A8FEF746
:101E1000C6F90F48007801280ADB0E48FEF7DCF906
:101E20000446234601220CA101A80AF08FFF09E015
:101E30000848FEF7D1F904462346002206A101A86E
:101E40000AF084FF01A801F011FF21B030BD0000AD
:101E5000AC000020CA0B002041542B434D51545478
:101E6000544F5049433D25642C25640D0A00000061
:101E700010B50446034801F0F9FE03A001F0F6FE98
:101E800010BD00000A0C00200D0A000030B5A1B002
:101E90000546802101A8FEF782F9802101A8FEF7FE
:101EA0007EF90F48007801280ADB0E48FEF794F906
:101EB0000446234601220CA101A80AF047FF09E0CD
:101EC0000848FEF789F904462346002206A101A826
:101ED0000AF03CFF01A801F0C9FE21B030BD0000AE
:101EE000AC0000200A0C002041542B434D515454A7
:101EF000554E5355423D25642C25642C300D0A0067
:101F00002DE9F04704460D462846FEF765F9C6B2AE
:101F1000A0192221FFF764FCC7B2082F00DB0827B5
:101F20001448002101604160A1193A46FEF71EF9EC
:101F30001148FEF751F980462846FEF74DF9C0F1E9
:101F400080090C48FEF748F9A9EB0000801E804587
:101F50000BD20948FEF740F9074900EB0108054B91
:101F60002A4606A140460AF0F1FE03F0A1FCBDE8B6
:101F7000F08700001E130020E20A0020257325735D
:101F8000222C00002DE9F34FABB000202A908146AF
:101F9000299000242890279000262B980690A2468E
:101FA000A346002005902C98312805DA2C9800EBE8
:101FB0008000FE4901EB800AFDA10698FEF7FAF8C1
:101FC00070B1FD48007824280ADB00220121FB487B
:101FD0000BF072FE4FF4167005F0CEF807F06CF9B6
:101FE000F7A10698FEF7E6F848B1F34800782428F0
:101FF00005DB0220FFF79AFC2620EF490870F4A1C8
:102000000698FEF7D7F828B10720FFF78FFC0720C6
:10201000E9490870F1A10698FEF7CCF820B1EFA1CC
:102020000698FEF7C7F80446EEA10698FEF7C2F838
:10203000002837D0EDA10698FEF7BCF848B9EE4865
:10204000007818B13120DC49087002E02420DA4918
:102050000870EAA10698FEF7ADF8E2A10698FEF72F
:10206000A9F80446A41D002709E02C212046FFF70B
:10207000B7FB814609F101000444781CC7B2052F63
:10208000F3DB2C212046FFF7ABFB8146B9F1180F9B
:1020900008DA1821DB48FEF782F84A462146D9487B
:1020A000FEF764F8D8A10698FEF784F858B1D8A1D5
:1020B0000698FEF77FF818B1012004F019FE02E03F
:1020C000002004F015FED4A10698FEF773F828B19D
:1020D0001120D34908700120D2490870CAA106987E
:1020E000FEF768F820B9B2A10698FEF763F878B158
:1020F000CB48007807280BD1C5A10698FEF75AF8FF
:1021000018B1012004F0F4FD02E0002004F0F0FD1D
:10211000002717E007EB4700C34901EB800BDBF812
:10212000040068B1DBF8080050B1DBF80410069831
:1021300001F09EFF04461CB12046DBE901129047E6
:10214000781CC7B20C2FE5D3B8A10698FEF732F879
:1021500090B1B6A10698FEF72DF804460E21B548B9
:10216000FEF71DF82C21E01DFFF73AFB81464A4699
:10217000E11DB048FDF7FAFFAFA10698FEF71AF887
:10218000AFA10698FEF716F8AFA10698FEF712F871
:1021900050B12C21E01DFFF723FB81460020AC4904
:1021A00008700120AB490870ABA10698FEF702F851
:1021B0000446ACB32C212046FFF712FB814609F1FF
:1021C000010004442C212046FFF70AFB8146002031
:1021D0000190029003900490B9F1100F04DC4A467C
:1021E000214601A8FDF7C2FF01A804F04BFA09F14E
:1021F000010004442C212046FFF7F2FA814600201A
:102200000190029003900490B9F1100F04DC4A464B
:10221000214601A8FDF7AAFF01A804F01BFA00BFA0
:102220008FA10698FDF7C6FF0446CCB100200390AD
:1022300004902C21A01DFFF7D3FA8146B9F1080FB5
:1022400001DD4FF008094A46A11D03A8FDF78EFFE6
:1022500003A8FDF7C8FF80B2029004F0DFF900BFC9
:102260008149069801F004FF2890289800287DD025
:102270007E492898FDF79EFF0028F8D07CA1289879
:10228000FDF798FF0446002C71D0142004F074FF71
:1022900000247BA12898FDF78DFF0446002C75D003
:1022A00078A12898FDF786FF18B100207A490870B8
:1022B00002E0012078490870E41C2C212046FFF739
:1022C0008FFAC6B2402E00DB402640217348FDF74E
:1022D00066FF324621467148FDF748FFA019441CAD
:1022E0002C212046FFF77CFAC6B2062E00DB06261C
:1022F0006A48403000210160818032462146FDF766
:1023000035FFA019441C2C212046FFF769FAC6B2FC
:10231000082E00DB0826614846300021016041603C
:1023200032462146FDF722FFA019441C22212046F7
:10233000FFF756FAC6B20A2E00DB0A2657484E307F
:10234000002101604160018132462146FDF70EFF08
:10235000002001F04DFE802107A8FDF720FF4F4926
:102360004E31A1F10800831F4C4A01E0B6E30DE0B5
:10237000CDE900014AA107A80AF0E8FC07A804F08B
:10238000B1F8042007F02CFA03F092FA4AA1289839
:10239000FDF710FF0446002C06D00B342C212046FC
:1023A000FFF71EFAC6B28DE0DBE00000A4030108CF
:1023B0004552524F52000000910200200008014097
:1023C0002B434D515454434F4E4E4C4F53540000E9
:1023D0002A415452454144593A2031002B43524539
:1023E000473A00002B435053493A00004E4F2053C8
:1023F00045525649434500007C0000204F6E6C69F1
:102400006E650000760B00202B4350494E3A0000C9
:1024100052454144590000002B434D5449000000EF
:1024200092020020950200207807010822534D5F98
:1024300050220000D40A00202B43504D53000000CE
:102440002B49504400000000434C4F5345440000CA
:1024500097020020990200202B434C42533A00007F
:102460002B4353513A200000930301088E0B0020A8
:102470002F636D642F6E62726F6B65722F000000A8
:102480000D0A22002B434D51545452585041594C7F
:102490004F41443A20300000AC000020D812002008
:1024A000226E62726F6B6572223A2225732C25733D
:1024B0002C25732C257322002F636D642F6E6170A1
:1024C0006E2F0000202E00DB20262021FE48FDF785
:1024D00066FE32462146FC48FDF748FEA019441C22
:1024E0002C212046FFF77CF9C6B2102E00DB102607
:1024F000F5480021016241628162C1623246214693
:102500002030FDF733FEA019441C22212046FFF79E
:1025100067F9C6B2102E00DB1026EB4800210163DC
:1025200041638163C163324621463030FDF71EFEB0
:10253000002001F05DFD802107A8FDF730FEE24894
:102540003030A0F11003E04AE0A1009007A80AF0A3
:10255000FDFB07A803F0C6FF042007F041F903F0D4
:10256000A7F9DFA12898FDF725FE04465CB304F126
:102570000A00FDF738FED4496839C1F8AC010020E3
:1025800001F036FDD0486838D0F8AC01B0F5347FA2
:1025900005D94FF43470CC496839C1F8AC018021B9
:1025A00007A8FDF7FCFDC8486838D0A1D0F8AC21D9
:1025B00007A80AF0CBFB07A803F094FF042007F05C
:1025C0000FF903F075F9CCA12898FDF7F3FD044647
:1025D000F4B1002001F00CFD04F10A00FDF703FE48
:1025E000B9496839C1F8B001802107A8FDF7D7FDC6
:1025F000B5486838C3A1D0F8B02107A80AF0A6FBF7
:1026000007A803F06FFF042007F0EAF803F050F981
:10261000BFA12898FDF7CEFD04464CB3BFA001F042
:10262000E7FCC1A1204601F039FB802107A8FDF796
:10263000B6FDC148007830B904F10A02BFA107A86D
:102640000AF084FB0EE0BC480078012805D1BEA248
:10265000C1A107A80AF07AFB04E0C2A2BEA107A8A4
:102660000AF074FB07A803F03DFF042007F0B8F858
:10267000C0A12898FDF79EFD04462CB3C0A001F030
:10268000B7FC0A342046FDF7A7FDC6B2082E00DBD2
:1026900008268D489830002101604160324621466D
:1026A000FDF764FD802107A8FDF779FD864A983281
:1026B000B6A107A80AF04AFB07A803F013FF0420FD
:1026C00007F08EF803F0F4F8B3A12898FDF772FD37
:1026D000044634B3002001F08BFC0A342046FDF799
:1026E0007BFDC6B2082E00DB082677489830002113
:1026F0008160C160324621460830FDF737FD042075
:1027000007F06EF8802107A8FDF749FD6E4AA03258
:10271000A4A107A80AF01AFB07A803F0E3FE03F040
:10272000C7F8A3A12898FDF745FD04469CB30020F7
:1027300001F05EFC802107A8FDF731FD9FA1204636
:10274000FDF738FD50B101205F49683981F8A801D3
:102750009CA29EA107A80AF0F9FA14E09EA12046C7
:10276000FDF728FD50B100205749683981F8A801CC
:102770009BA296A107A80AF0E9FA04E09AA293A105
:1027800007A80AF0E3FA07A803F0ACFE042007F05C
:1027900027F803F08DF897A12898FDF70BFD044664
:1027A0009CB3002001F024FC802107A8FDF7F7FC72
:1027B00060A12046FDF7FEFC50B101204249683976
:1027C00081F8A80100228EA107A80AF0BFFA14E040
:1027D0008EA12046FDF7EEFC50B100203A49683941
:1027E00081F8A801012286A107A80AF0AFFA04E047
:1027F00087A289A107A80AF0A9FA07A803F072FE28
:10280000042006F0EDFF03F053F886A12898FDF7A9
:10281000D1FC0446F4B104F10A00FDF7E4FC2A49B6
:102820006839C1F8B801002001F0E2FB802107A857
:10283000FDF7B5FC244868387DA1D0F8B82107A879
:102840000AF084FA07A803F04DFE042006F0C8FF42
:1028500003F02EF879A12898FDF7ACFC0446C4B12A
:1028600078A12898FDF7A6FC08B101202790022046
:1028700006F0B6FF204603F0F5FF0490FDF7ACFC30
:1028800018B1032006F0ACFF03E00020279903F005
:1028900089FA6FA12898FDF78DFC044694B16EA1CA
:1028A0002898FDF787FC08B101202790022006F048
:1028B00097FF204603F0D6FF0490FDF78DFC10B182
:1028C0000320CFE0D5E0D0E098120020226E6170A6
:1028D0006E223A2225732C25732C257322000000CA
:1028E0002F636D642F677374772F000022677374F2
:1028F00077223A22256422002F636D642F67637468
:10290000772F00002267637477223A222564220021
:102910002F636D642F636F64652F00002F636D64F8
:102920002F636F64650000002F636D642F636F6415
:10293000652F222A300000008403002022636F6488
:1029400065223A257300000070617373776F7264BB
:10295000207573650000000022636F6465223A22CF
:102960002573220070617373776F726420657272D1
:102970006F7200002F636D642F6D6672712F0000FF
:102980002F636D642F6D667271000000226D667298
:1029900071223A22257322002F636D642F746672B0
:1029A000712F00002274667271223A222573220070
:1029B0002F636D642F757064742F0000226175742D
:1029C0006F2200006175746F000000002275706452
:1029D00074223A2225732200226D616E7522000056
:1029E0006D616E75000000006572726F7220636D1C
:1029F000640000002F636D642F7270746D2F0000EF
:102A0000227270746D223A22256422003100000087
:102A10006572726F72000000227270746D223A2229
:102A2000257322002F636D642F686266712F00008A
:102A30002268627271223A22256422002F61747426
:102A4000000000002F6174742F6D65746100000038
:102A50002F737473000000002F7374732F6D6574EF
:102A60006100000006F0BCFE03E00220279903F09D
:102A700099F9FDA12898FDF79DFB0446C4B1FCA17E
:102A80002898FDF797FB08B101202790022006F057
:102A9000A7FE204603F0E6FE0490FDF79DFB18B16B
:102AA000032006F09DFE03E00320279903F07AF946
:102AB000F2A12898FDF77EFB0446002C0ED0EDA174
:102AC0002898FDF777FB08B101202790EDA1289801
:102AD000FDF770FB18B1012006F082FE9EE0ECA12C
:102AE0002898FDF767FB90B1022006F079FE20469A
:102AF00003F0B8FE0490FDF76FFB18B1032006F059
:102B00006FFE8BE00020279903F04CF986E0E2A1EC
:102B10002898FDF74FFB90B1022006F061FE204699
:102B200003F0A0FE0490FDF757FB18B1032006F058
:102B300057FE73E00120279903F034F96EE0D8A125
:102B40002898FDF737FB90B1022006F049FE204699
:102B500003F088FE0490FDF73FFB18B1032006F058
:102B60003FFE5BE00220279903F01CF956E0CEA15E
:102B70002898FDF71FFB90B1022006F031FE204699
:102B800003F070FE0490FDF727FB18B1032006F058
:102B900027FE43E00320279903F004F93EE0C4A197
:102BA0002898FDF707FB90B1022006F019FE204699
:102BB00003F058FE0490FDF70FFB18B1032006F058
:102BC0000FFE2BE00420279903F0ECF826E0BAA1D1
:102BD0002898FDF7EFFA08B300270EE007EB47024D
:102BE000B74800EB42012898FDF7E4FA18B13846DF
:102BF00002F0DAFF06E0781CC7B2B248D0F8500203
:102C0000B842EBD800BFAF48D0F85002B84202D863
:102C1000FF2002F0C9FF062006F0E2FDAAA12898D5
:102C2000FDF7C8FA0446002C00F0F486A8A1289805
:102C3000FDF7C0FA0446002C79D0142004F09CFA69
:102C4000AFF2C0712898FDF7B5FA18B10020A2497B
:102C5000087002E00120A0490870E41D2C212046E4
:102C6000FEF7BEFDC6B2402E00DB4026402195484F
:102C7000A830FDF794FA324621469248A830FDF775
:102C800075FAA019441C2C212046FEF7A9FDC6B2F6
:102C9000062E00DB06268B48E8300021016081808B
:102CA00032462146FDF762FAA019441C2C21204629
:102CB000FEF796FDC6B2082E00DB08268148EE30EE
:102CC00000210160416032462146FDF74FFAA0190C
:102CD000441C22212046FEF783FDC6B20A2E00DBEB
:102CE0000A267848F63000210160416001813246B1
:102CF0002146FDF73BFA002001F07AF9802107A870
:102D0000FDF74DFA6F49F631A1F10800831FA0F1DC
:102D10004602CDE9000171A107A80AF017F807A83B
:102D200003F0E0FB042006F05BFD02F0C1FD71A1A1
:102D30002898FDF73FFA0446002C72D06FA128981E
:102D4000FDF738FA0446ACB1802107A8FDF727FA51
:102D500009226DA107A8FDF709FA07A803F0C2FB35
:102D600000205849C1F8D401502155487C38FDF75E
:102D700016FAF0E00020049003905249C1F8D40103
:102D800050214F487C38FDF70AFA0020049037E0C4
:102D9000002003902AE000200190029001AADDE9C2
:102DA000031003F0D1F9E8B101A92898C01DFDF77F
:102DB00001FA0446B4B101A941487C38FDF7FAF99B
:102DC00080B94048D0F8D411D0F8D401401C3D4A15
:102DD00001EB4101C2F8D40102F5EC7000EB4100B7
:102DE000019901600398401CC0B2039049490498BE
:102DF000095C03988142CEDC0498401CC0B2049068
:102E000004980528C4DB802107A8FDF7C8F942A172
:102E100003C9CDE907012B48D0F8D40118B3002726
:102E20001AE09DE007A8FDF7D7F907A9084407EBCA
:102E30004701009022487C3800EB410239A10098FC
:102E400009F084FF07A8FDF7C7F907A9084437A1CF
:102E500009780170781CC7B21A48D0F8D401B8427A
:102E6000E0D807A864E069E02F73746100000000F7
:102E70002F7374612F6D65746100000022676574A3
:102E8000223A000066756C6C646174610000000099
:102E9000226174740000000022636D640000000071
:102EA000227374730000000022647461000000004B
:102EB0002264696100000000226162616300000019
:102EC000841400203012002022736574223A00001E
:102ED00062726F6B223A0000AC0000202262726FB7
:102EE0006B223A2225732C25732C25732C257322F3
:102EF0000000000072616D6C223A000072616D6C1E
:102F0000223A5B5D000000002272616D6C223A5B28
:102F10005D000000080A01082272616D6C223A5BB4
:102F20000000000022257322000000002C00000099
:102F3000FDF752F9401E07A900220A5407A8FDF721
:102F40004BF907A90844AFF238010978017007A8C6
:102F500003F0C8FA00BF042006F042FC02F0A8FC0F
:102F6000FDA12898FDF726F9044604B3A01DFDF73E
:102F70003AF90FFA80F8B8F1010F05DBB8F5347FA4
:102F800002DAF748C0F8D081802107A8FDF707F9D9
:102F9000F348F4A1D0F8D02107A809F0D7FE07A87C
:102FA00003F0A0FA042006F01BFC02F081FCF0A163
:102FB0002898FDF7FFF80446002C6ED0EEA1289863
:102FC000FDF7F8F80446A4B1802107A8FDF7E7F85B
:102FD0000922ECA107A8FDF7C9F807A803F082FAB7
:102FE0000020DF49C1F850023021E948FDF7D7F849
:102FF0007FE0002004900390D949C1F850023021AD
:10300000E348FDF7CCF80020049035E00020039061
:1030100028E000200190029001AADDE9031003F0EE
:1030200093F8D8B101A92898C01DFDF7C3F804464C
:10303000A4B101A9D648FDF7BDF878B9C848D0F8C1
:103040005012D0F85002401CC54A01EB4101C2F8B1
:103050005002CF4800EB4100019901600398401CE9
:10306000C0B20390CB490498095C03988142D0DC3C
:103070000498401CC0B2049004980528C6DB802147
:1030800007A8FDF78CF8C4A103C9CDE90701B4482E
:10309000D0F8500248B300271BE02FE007A8FDF747
:1030A0009BF807A9084407EB47010090B84800EBDC
:1030B0004102AFF29011009809F048FE07A8FDF711
:1030C0008BF807A90844AFF29C1109780170781CAD
:1030D000C7B2A348D0F85002B842DFD807A8FDF71E
:1030E0007BF8401E07A900220A5407A803F0FAF94A
:1030F00000BF042006F074FB02F0DAFBA8A12898B8
:10310000FDF758F80446CCB300200490A6A1204651
:1031100000F0C4FD802107A8FDF741F8A54800781C
:10312000A0B9E21DA4A107A809F010FE07A8FDF7A9
:1031300053F8C0B204900498C8B100210498401E0E
:1031400007AA11540498801E115410E09948007881
:10315000012806D1AFF610029AA107A809F0F6FDE2
:1031600005E0AFF6000297A107A809F0EFFD07A858
:1031700003F0B8F9042006F033FB00BF94A12898AF
:10318000FDF718F8044604B3A01DFDF72CF80FFA5C
:1031900080F8B8F1000F05DDB8F5347F02DA704829
:1031A000C0F8AC81802107A8FCF7F9FF6C488AA120
:1031B000D0F8AC2107A809F0C9FD07A803F092F9DF
:1031C000042006F00DFB02F073FB86A12898FCF7A3
:1031D000F1FF044614B3A01DFDF705F80FFA80F8BF
:1031E000B8F1000F07DD5E48D0F8AC01404502D9C8
:1031F0005B48C0F8B081802107A8FCF7D0FF584891
:103200007AA1D0F8B02107A809F0A0FD07A803F023
:1032100069F9042006F0E4FA02F04AFB76A1289846
:10322000FCF7C8FF0446ECB3E41D2C212046FEF752
:10323000D7FAC6B2202E00DB20262021484868306D
:10324000FCF7ADFF3246214645486830FCF78EFF5B
:10325000A019441C2C212046FEF7C2FAC6B2102E3B
:1032600000DB10263E486830002101624162816225
:10327000C162324621462030FCF778FFA019441C79
:1032800022212046FEF7ACFAC6B2102E00DB102633
:10329000334868300021016341638163C163324672
:1032A000214600E01AE03030FCF760FF802107A8DB
:1032B000FCF775FF2A489830A0F11003A0F1300206
:1032C000AFF6F811009007A809F040FD07A803F039
:1032D00009F9042006F084FA02F0EAFA48A12898D5
:1032E000FCF768FF04466CB3802107A8FCF757FF82
:1032F00045A12046FCF75EFF68B145A107A809F08B
:1033000025FD072008F09CFC322003F035FF082043
:1033100008F096FC10E041A12046FCF74BFF38B1C5
:1033200040A107A809F012FD092008F089FC03E07C
:1033300040A107A809F00AFD07A803F067FA0420D6
:1033400006F04EFA3FA12898FCF734FF044614B16A
:10335000802107A87AE08CE072616D74223A000047
:10336000301200202272616D74223A256400000040
:1033700061626163223A000061626163223A5B5DCF
:10338000000000002261626163223A5B5D00000080
:1033900084140020080A01082261626163223A0055
:1033A0007075626B223A22007075626B223A222A93
:1033B0003000000084030020227075626B223A22E4
:1033C00025730000227075626B223A222573220059
:1033D00067737477223A00002267737477223A2564
:1033E0006400000067637477223A00002267637408
:1033F00077223A25640000006E61706E223A220046
:1034000073776368223A2200226F6E220000000068
:103410002273776368223A226F6E2200226F6666FB
:10342000220000002273776368223A226F666622C8
:10343000000000002273776368223A226572726F7F
:103440007222000072656164223A2200FCF7A7FE36
:103450002046FCF7C1FE02462146049007A8FCF76F
:1034600085FE07A803F03EF8042006F0B9F902F043
:103470001FFAFAA12898FCF79DFE044684B3802128
:1034800007A8FCF78CFEF7A12046FCF793FE48B195
:103490000120F54981F8A8010022F4A107A809F04C
:1034A00055FC15E0F4A12046FCF784FE48B100204D
:1034B000ED4981F8A8010122ECA107A809F046FC1A
:1034C00006E0AFF6B422AFF6B02107A809F03EFC43
:1034D00007A803F007F8042006F082F902F0E8F9E3
:1034E000E6A12898FCF766FE0446C4B1A01DFCF7CF
:1034F0007AFEDD49C1F8B801802107A8FCF74FFE2C
:10350000D948E0A1D0F8B82107A809F01FFC07A806
:1035100002F0E8FF042006F063F902F0C9F902F0B6
:10352000E5FD0590002772E207F10802059840309A
:1035300000EB021001682898FCF73CFE0446002CC2
:1035400071D0802107A8FCF72AFEA01DFCF74BFED6
:1035500085B21C2F18D2DFE807F00E1825323F4C39
:103560005967747E8B98A5B2BFCCD9F1EFEEEDEC24
:10357000EBEAE9E8E7E62A46C5A107A809F0E6FB79
:103580002946002007F0C6F838E2032D00DD0325A8
:103590002A46C2A107A809F0D9FB2946012007F055
:1035A000B9F82BE2022D00DD02252A46BEA107A8AC
:1035B00009F0CCFB2946022007F0ACF81EE2172DDB
:1035C00000DD17252A46BBA107A809F0BFFB294645
:1035D000032007F09FF811E2172D00DD17252A467A
:1035E000B7A107A809F0B2FB2946042007F092F81A
:1035F00004E2172D00DD17252A46B4A107A809F01B
:10360000A5FB2946052007F085F8F7E1172D00DD19
:1036100017252A46B0A107A809F098FB29460620DD
:1036200007F078F8EAE1F0E1012D00DD01252A46F6
:10363000ACA107A809F08AFB2946072007F06AF821
:10364000DCE12A46AAA107A809F080FB2946082048
:1036500007F060F8D2E1012D00DD01252A46A7A17F
:1036600007A809F073FB29460F2007F053F8C5E1BE
:10367000062D00DD06252A46A3A107A809F066FB52
:103680002946122007F046F8B8E1012D00DD01259A
:103690002A46A0A107A809F059FB2946132007F0E4
:1036A00039F8ABE1022D00DD02252A469CA107A8CE
:1036B00009F04CFB2946142007F02CF89EE1012D5F
:1036C00000DD01252A4699A107A809F03FFB2946FC
:1036D000152007F01FF891E1012D00DD01252A4694
:1036E00095A107A809F032FB2946162007F012F829
:1036F00084E1FE2D00DDFE252A4692A107A809F0EF
:1037000025FB29461E2007F005F877E1B42D00DDE2
:10371000B4252A468EA107A809F018FB29462220C5
:1037200006F0F8FF6AE15CE14EE18AE079E068E0EA
:103730005AE04CE03EE029E014E0FFE7B5F5207FD9
:1037400001DD4FF42075B5F5FA7F01DA4FF4FA7513
:103750002A4682A107A809F0F9FA2946232006F093
:10376000D9FF4BE1B5F50C7F01DD4FF40C75B5F5D4
:10377000FA7F01DA4FF4FA752A467BA107A809F00F
:10378000E5FA2946242006F0C5FF37E1B5F5207F8C
:1037900001DD4FF42075B5F5967F01DA4FF496758B
:1037A0002A4674A107A809F0D1FA2946252006F077
:1037B000B1FF23E1642D00DD64252A4670A107A82E
:1037C00009F0C4FA2946262006F0A4FF16E1012DCF
:1037D00000DD01252A466DA107A809F0B7FA2946A0
:1037E000282006F097FF09E1632D00DD63252A46B6
:1037F00069A107A809F0AAFA29462D2006F08AFF38
:10380000FCE00C2D00DD0C25012D00DA01252A46F7
:1038100064A107A809F09AFA29462E2006F07AFF3B
:10382000ECE01F2D00DD1F25012D00DA01252A46C1
:103830005FA107A809F08AFA29462F2006F06AFF3F
:10384000DCE0172D00DD17252A465CA107A809F04A
:103850007DFA2946302006F05DFFCFE07270746D6E
:10386000223A00003A3000003012002022727074B8
:103870006D223A25640000003A31000068626671EA
:10388000223A00002268626671223A256400000034
:1038900022616F6374223A256400000022616F7315
:1038A00073223A25640000002262637373223A2572
:1038B0006400000022756F7374223A2564000000D2
:1038C00022756F6574223A256400000022756373C7
:1038D00074223A25640000002275636574223A253B
:1038E000640000002270696D64223A2564000000C3
:1038F0002261696D64223A2564000000226C6E67C3
:1039000073223A256400000022616F7673223A2503
:103910006400000022616F6673223A256400000093
:10392000226F6C7273223A2564000000226F747259
:1039300073223A256400000022627A6F6E223A25D3
:10394000640000002263617373223A256400000062
:10395000226D786363223A2564000000226262636C
:1039600076223A25640000002262666376223A25B8
:1039700064000000226C627573223A256400000026
:103980002261636373223A25640000002261676D3F
:1039900064223A25640000002273747973223A2568
:1039A000640000002273746D73223A2564000000E5
:1039B0002273746473223A256400000022737468D1
:1039C00073223A25640000003B2D00DD3B252A468A
:1039D00021A107A809F0BAF92946312006F09AFE7C
:1039E0000CE03B2D00DD3B252A461EA107A809F06F
:1039F000ADF92946322006F08DFE00BF00BF07A8B2
:103A000002F070FD042005F0EBFE781CC7B21C2FFD
:103A1000FFF68AADBAF1000F1BD0DAF8081006984D
:103A2000FCF7C8FB0446A4B1DAF80000162803D15D
:103A300017200F49087005E001200E49087000208A
:103A40000B490870DAF8100018B1DAF8101006986F
:103A500088472DB0BDE8F08F2273746D6D223A2532
:103A6000640000002273747373223A25640000001E
:103A70005C0000205D0000202DE9F04107460D4666
:103A80002846FCF7A9FB00F0FF0809A1384600F022
:103A9000EFFA044654B1641C22212046FDF7A0FE33
:103AA000C6B2324621460348FCF760FBBDE8F08110
:103AB000222B0000620B00202DE9F04704460D4642
:103AC0002846FCF789FBC6B2A0192221FDF788FE23
:103AD000C7B2062F00DB0627144800210160818051
:103AE000A1193A46FCF742FB1148FCF775FB8046EA
:103AF0002846FCF771FBC0F180090C48FCF76CFB11
:103B0000A9EB0000801E80450BD20948FCF764FB3E
:103B1000074900EB0108054B2A4606A1404609F07B
:103B200015F901F0C5FEBDE8F0870000181300206C
:103B3000E20A002025732573222C000030B5A1B0C5
:103B4000802101A8FCF72BFB3E480078C008B0B1EB
:103B50003C48007820F0F8003A4908700846407860
:103B6000401C487008464078062808DA3648007835
:103B7000FDF7DCFE002141F2883008F08BFB334872
:103B8000C088334908603348046854E0601E3249F5
:103B9000085C0D2804D10846005D0A2800D1DCB974
:103BA0002D48005D3E2817D02B48005D7D2813D09E
:103BB000A01E2949085C2949097888423AD1601E2B
:103BC0002549085C25494978884233D12248005D5F
:103BD0002249897888422DD10A2003F0CDFA601C51
:103BE0001C490968401A1E49086004211DA009F0FB
:103BF00033F801A8FCF7F0FA85B2294601A809F0CC
:103C00002BF81549134A12688818FCF7E5FA85B2B3
:103C10001149104A12688818294609F01DF80E4902
:103C20000C4A1268881808490978FEF7ABF9601C3D
:103C300008490860641C064800688442A6D321B085
:103C400030BD0000A40400205C000020080000201B
:103C50006000002068000020D40600208E0B0020A9
:103C60006400002047534D3A0000000070B5044640
:103C70002046FCF7B1FA85B22946204608F044FFF9
:103C8000042104A008F0E8FF2946204608F0E4FFDC
:103C900070BD00004D43553A000000002DE9F04F83
:103CA00093B08046894600200490039002900190D2
:103CB00000907EA14046FCF77DFA08B101200290F9
:103CC0004846FCF789FAC0B21290129908EB01003D
:103CD0002321FDF785FDC0B21190202105A8FCF736
:103CE0005EFA129808EB000405A8109000270EE079
:103CF000E05D202809D0E15D109801701098401C0B
:103D000010900198401CC0B20190781C87B21198A5
:103D10008742EDDB6848FCF75FFA82464846FCF7CD
:103D20005BFAC0F1800B05A8FCF756FAABEB00007C
:103D3000801E82450DD2029858B95F48FCF74CFAB4
:103D40005D4900EB010A05AB4A465CA1504608F00C
:103D5000FDFF019814280FDA029868B95648FCF75D
:103D60003BFA55490844A0F1010A56A1504608F013
:103D7000EDFF13B0BDE8F08F0198142806DA57481C
:103D8000407820F00200801C544948700DF11E005C
:103D900000F09AF9064600208DF81E0005A800F0F4
:103DA00093F90546202105A8FCF7F9F9C5208DF8FF
:103DB00021006A208DF8220029208DF823000E2092
:103DC0008DF82400FA208DF82500300E8DF829009A
:103DD000300C8DF82800300A8DF82700F0B28DF8ED
:103DE0002600280E8DF82D00280C8DF82C00280AAE
:103DF0008DF82B00E8B28DF82A000DF12104207B0C
:103E00008DF83700E07A8DF83600A07A8DF835000D
:103E1000607A8DF83400207A8DF83B00E0798DF8D7
:103E20003A00A0798DF8390060798DF838002C4877
:103E3000DDE90D12C0E9141207F008F829480078EE
:103E4000012810D11C48FCF7C7F97A2821D21A485A
:103E5000FCF7C2F91849084423A10A6840F8012C6C
:103E60000979C17015E01F480078022811D1124865
:103E7000FCF7B2F97A280CD20F48FCF7ADF90E49DD
:103E800008441BA10A6840F8012D8A88828089793C
:103E900081711448007800906A460C21022002F0DB
:103EA00055FB01F005FD00BF63E700002F636D6463
:103EB0002F636F6465000000E20A002025732573FC
:103EC000222C00006973206E6F7420636F7272651C
:103ED000637420666F726D61742E200042020020B0
:103EE00040740020840300202075736522000000C8
:103EF000206572726F7222002DE9F04704460D466C
:103F00002846FCF769F9C6B2A0192221FDF768FC22
:103F1000C7B2082F00DB0827154800218160C16067
:103F2000A1193A460830FCF721F91248FCF754F978
:103F300080462846FCF750F9C0F180090C4808304B
:103F4000FCF74AF9A9EB0000801E80450CD2094815
:103F5000FCF742F9074900EB0108054B08332A46F4
:103F600005A1404608F0F2FE01F0A2FCBDE8F08792
:103F700030130020E20A002025732573222C000054
:103F800070B51648FCF728F9044622461349144830
:103F9000FCF7ECF83C211348FCF701F91248FCF758
:103FA0001BF90446224610490E48FCF7DFF80C487E
:103FB000FCF712F905460B48FCF70EF909494418BD
:103FC0002A4607492046FCF7D1F80648FCF704F9D1
:103FD0000449084405A10988018070BD407400208F
:103FE0008E0B00200A0C0020930301082F230000F1
:103FF00070B5044614211948FCF7D1F81848FCF7AD
:10400000EBF805462A4616491448FCF7AFF840215C
:104010001448FCF7C4F81448FCF7DEF805462A46B5
:1040200011491048FCF7A2F80C48FCF7D5F80646F1
:104030000C48FCF7D1F80B49451832460749284689
:10404000FCF794F84CB10748FCF7C6F80549451849
:10405000224606A1284608F079FE70BD8E0B00208E
:1040600040740020CA0B002084030108257300005F
:104070002DE9F04706460F46124800881FFA80F9DE
:104080003846FCF7A9F81FFA80F8002513E0002451
:1040900007E02819305C395D884200D003E0601CDD
:1040A00084B24445F5DB00BF444502D17019BDE838
:1040B000F087681C85B2A9EB0800A842E7DC002065
:1040C000F5E70000640000202DE9F04105460024DA
:1040D0002846FCF781F8C7B2002600BF0EE0285D35
:1040E000302802DB285D392800DD09E006EB860078
:1040F0004600285D30380644601CC4B2BC42EEDB8A
:1041000000BF3046BDE8F081F0B59BB0002500202F
:104110001290002600271190F94C202113A8FCF7DB
:104120003EF800F09FFB12AA13A9204601F040F8C8
:10413000002877D09DF84800002874D0F148007816
:10414000001F242838D2DFE800F012384B5E6F766B
:104150007D90A3B4CBFBF9F8F7F6F5F4F3F2F1F0A8
:10416000EFEEEDECEBEAE9E8E7E6E5E4E3E29DF803
:104170004800202808DA13AAE3A101A808F0E6FD08
:10418000E5A101A8FFF78AFDE748007828B92022B9
:1041900013A9E648FBF7EAFF00E000BFE248007819
:1041A000E2495C3981F85C013420D6490870E04965
:1041B0000870642002F0E0FF32E3DC485C38BDF8B0
:1041C0004C10A0F87C1011AA0121084601F03AFF1A
:1041D000BDF84400D749C1F8AC0101F069FB1FE309
:1041E000D2485C38BDF84C10A0F87E1011AA02210C
:1041F000012001F027FFBDF84400CE49C1F8B0010D
:1042000001F056FB0CE3202213A9C8482430FBF729
:10421000ADFFC84A68320321012001F013FF01F00D
:1042200047FBFDE20EE3FCE2C0485C38BDF84C10F1
:10423000A0F87E10F4E2202213A9BC484630FBF718
:1042400095FFEDE2B9485C38BDF84C10A0F8C210FB
:1042500011AA0621012001F0F5FEBDF84400B54980
:1042600081F8A80101F024FBDAE2B0485C38BDF81F
:104270004C10A0F8C41011AA0721012001F0E2FEA1
:10428000BDF84400AB49C1F8B80101F011FBC7E229
:10429000A6485C38BDF84C10A0F8C61011AA082139
:1042A000012001F0CFFEBDF84410002006F032FAE4
:1042B000B6E29E485C38BDF84C10A0F8C81011AAB0
:1042C0000921012001F0BEFEBDF84400032801DDF4
:1042D00003201190BDF84410012006F01BFA9FE264
:1042E00092485C38BDF84C10A0F8CA1011AA0A21F7
:1042F000012001F0A7FEBDF84400022801DD0220E4
:104300001190BDF84410022006F004FA88E271E230
:104310005AE243E226E209E2F2E1DBE1C4E1A3E191
:1043200082E161E14AE133E11CE105E1D1E0B9E07C
:10433000A1E089E077E05FE047E02FE017E0FFE7EA
:104340007A485C38BDF84C10A0F8CC1011AA0B21AB
:10435000012001F077FEBDF84400172801DD172089
:104360001190BDF84410032006F0D4F958E26F48CC
:104370005C38BDF84C10A0F8CE1011AA0C21012019
:1043800001F060FEBDF84400172801DD17201190F0
:10439000BDF84410042006F0BDF941E263485C38E2
:1043A000BDF84C10A0F8D01011AA0D21012001F089
:1043B00049FEBDF84400172801DD17201190BDF813
:1043C0004410052006F0A6F92AE258485C38BDF8EA
:1043D0004C10A0F8D21011AA0E21012001F032FEDB
:1043E000BDF84400172801DD17201190BDF84410D6
:1043F000062006F08FF913E24C485C38BDF84C10EB
:10440000A0F8D41011AA0F21012001F01BFEBDF865
:104410004400012801DD01201190BDF8441007205F
:1044200006F078F9FCE141485C38BDF84C10A0F882
:10443000D61011AA1021012001F004FEBDF844108D
:10444000082006F067F9EBE138485C38BDF84C10FD
:10445000A0F8D81011AA1121012001F0F3FDBDF838
:104460004400012801DD01201190BDF844100F2007
:1044700006F050F9D4E12D485C38BDF84C10A0F896
:10448000DA1011AA1221012001F0DCFDBDF8440070
:10449000062801DD06201190BDF84410122006F018
:1044A00039F9BDE121485C38BDF84C10A0F8DC10AA
:1044B00011AA1321012001F0C5FDBDF84400012817
:1044C00001DD01201190BDF84410132006F022F9FF
:1044D000A6E116485C38BDF84C10A0F8DE1011AA11
:1044E0001421012001F0AEFDBDF84400022801DDD9
:1044F00002201190BDF84410142006F00BF98FE152
:10450000C60C0020AE0000202F636D642F636F6423
:10451000652F2225732200002F636D642F636F6463
:10452000652F222A300000008403002052670020FB
:10453000B100002030120020C348BDF84C10A0F894
:10454000E01011AA1521012001F07CFDBDF8440006
:10455000012801DD01201190BDF84410152006F05E
:10456000D9F85DE1B848BDF84C10A0F8E21011AAE6
:104570001621012001F066FDBDF84400012801DD8F
:1045800001201190BDF84410162006F0C3F847E151
:10459000AD48BDF84C10A0F8E41011AA1721012075
:1045A00001F050FDBDF84400FE2801DDFE20119011
:1045B000BDF844101E2006F0ADF831E1A248BDF868
:1045C0004C10A0F8E61011AA1821012001F03AFDC4
:1045D000BDF84400B42801DDB4201190BDF84410AA
:1045E000222006F097F81BE19748BDF84C10A0F880
:1045F000E81011AA1921012001F024FDBDF84400A2
:10460000B0F5207F02DD4FF420701190BDF844001A
:10461000B0F5FA7F02DA4FF4FA701190BDF8441049
:10462000232006F077F8FBE08748BDF84C10A0F88F
:10463000EA1011AA1A21012001F004FDBDF844007E
:10464000B0F50C7F02DD4FF40C701190BDF8440002
:10465000B0F5FA7F02DA4FF4FA701190BDF8441009
:10466000242006F057F8DBE07748BDF84C10A0F89E
:10467000EC1011AA1B21012001F0E4FCBDF844005C
:10468000B0F5207F02DD4FF420701190BDF844009A
:10469000B0F5967F02DA4FF496701190BDF8441091
:1046A000252006F037F8BBE06748BDF84C10A0F8AD
:1046B000EE1011AA1C21012001F0C4FCBDF8440039
:1046C000642801DD64201190BDF84410262006F016
:1046D00021F8A5E05C48BDF84C10A0F8F01011AA34
:1046E0001D21012001F0AEFCBDF84400012801DDD0
:1046F00001201190BDF84410282006F00BF88FE03F
:104700005148BDF84C10A0F8F21011AA1E2101204A
:1047100001F098FCBDF84400632801DD632011908E
:10472000BDF844102D2005F0F5FF79E04648BDF8AE
:104730004C10A0F8F41011AA1F21012001F082FCF6
:10474000BDF844000C2801DD0C201190BDF8440098
:10475000012801DA01201190BDF844102E2005F047
:10476000D9FF5DE03848BDF84C10A0F8F61011AA4A
:104770002021012001F066FCBDF844001F2801DD66
:104780001F201190BDF84400012801DA012011908A
:10479000BDF844102F2005F0BDFF41E02A48BDF8C8
:1047A0004C10A0F8F81011AA2121012001F04AFCB8
:1047B000BDF84400172801DD17201190BDF8441002
:1047C000302005F0A7FF2BE01F48BDF84C10A0F8E3
:1047D000FA1011AA2221012001F034FCBDF8440096
:1047E0003B2801DD3B201190BDF84410312005F03D
:1047F00091FF15E01448BDF84C10A0F8FC1011AA68
:104800002321012001F01EFCBDF844003B2801DDFE
:104810003B201190BDF84410322005F07BFF00BF13
:1048200000BF4FF480710948FBF7B9FC002008492C
:10483000C880064808600748007800F03BF864200C
:1048400002F09AFC1BB0F0BDF6660020C60C0020FA
:1048500000000020AE0000200120014908707047D0
:10486000AF00002010B510480078E0B10F48008874
:1048700020B10E480088401E0C4908800B48008873
:1048800038B90B4908780978491C094B197000F0B0
:1048900011F8074800787D2802DD002004490870DF
:1048A00000200149087010BDAF000020B4000020B6
:1048B000B100002070B588B00446002500262021F4
:1048C0006846FBF76CFC7E2C00D200E0F0E3DFE8EA
:1048D00014F07E0086008F009800A000A900B100AF
:1048E000B900C200CA00D300DB00E300EB00F30014
:1048F000FB0003010B0113011B0123012B013301F9
:104900003B0143014B0153015B0163016B017301E7
:104910007B0183018B0193019B01A301AB01B301D7
:10492000BB01C301CB01D301DC01E501EE01F701BD
:10493000FF0107020F0217021F0227022F02370290
:104940003F0247024F0257025E02660273027B0279
:1049500083028B0293029B02A302AA02B102B90254
:10496000C102C802CF02D602DD02E502ED02F50265
:10497000FD0205030D0314031C0323032A03310363
:1049800038033F0346034D0354035C0364036C0385
:1049900074037C0384038C0394039B03A303AB0382
:1049A000B303BA03C103C803D003D803E003E80389
:1049B000F003F703FE0305040D0415041C0423048F
:1049C0002A0432043A0442044A04510458040126D9
:1049D0001422F7496846FBF7C9FB2025DAE30126D4
:1049E0002022F34914316846FBF7C0FB2025D1E3B0
:1049F00001262022EE4934316846FBF7B7FB20251B
:104A0000C8E30126EA48416D0091806D01902025A0
:104A1000C0E301262022E6495C316846FBF7A6FB8D
:104A20002025B7E30126E248B0F87C00ADF800008D
:104A30000225AFE30126DE48B0F87E00ADF80000A5
:104A40000225A7E301262022D94980316846FBF7D9
:104A50008DFB20259EE30126D548B0F87E00ADF8F9
:104A60000000022596E301262022D149A2316846A2
:104A7000FBF77CFB20258DE30126CD48B0F8C20072
:104A8000ADF80000022585E30126C948B0F8C4004E
:104A9000ADF8000002257DE30126C548B0F8C60048
:104AA000ADF80000022575E30126C148B0F8C80042
:104AB000ADF8000002256DE30126BD48B0F8CA003C
:104AC000ADF80000022565E30126B948B0F8CC0036
:104AD000ADF8000002255DE30126B548B0F8CE0030
:104AE000ADF80000022555E30126B148B0F8D0002A
:104AF000ADF8000002254DE30126AD48B0F8D20024
:104B0000ADF80000022545E30126A948B0F8D4001D
:104B1000ADF8000002253DE30126A548B0F8D60017
:104B2000ADF80000022535E30126A148B0F8D80011
:104B3000ADF8000002252DE301269D48B0F8DA000B
:104B4000ADF80000022525E301269948B0F8DC0005
:104B5000ADF8000002251DE301269548B0F8DE00FF
:104B6000ADF80000022515E301269148B0F8E000F9
:104B7000ADF8000002250DE301268D48B0F8E200F3
:104B8000ADF80000022505E301268948B0F8E400ED
:104B9000ADF800000225FDE201268548B0F8E600E8
:104BA000ADF800000225F5E201268148B0F8E800E2
:104BB000ADF800000225EDE201267D48B0F8EA00DC
:104BC000ADF800000225E5E201267948B0F8EC00D6
:104BD000ADF800000225DDE201267548B0F8EE00D0
:104BE000ADF800000225D5E201267148B0F8F000CA
:104BF000ADF800000225CDE201266D48B0F8F200C4
:104C0000ADF800000225C5E201266948B0F8F400BD
:104C1000ADF800000225BDE201266548B0F8F600B7
:104C2000ADF800000225B5E201266148B0F8F800B1
:104C3000ADF800000225ADE201265D48B0F8FA00AB
:104C4000ADF800000225A5E201265948B0F8FC00A5
:104C5000ADF8000002259DE201265548B0F8FE009F
:104C6000ADF80000022595E2012610225149684660
:104C7000FBF77CFA20258DE2012610224D491031E8
:104C80006846FBF773FA202584E201261022494981
:104C900020316846FBF76AFA20257BE201261022C4
:104CA000444930316846FBF761FA202572E201265B
:104CB0001022404940316846FBF758FA202569E246
:104CC00001263B48B0F85001ADF80000022561E232
:104CD00001263748B0F85201ADF80000022559E22C
:104CE00001263348B0F85401ADF80000022551E226
:104CF00001262F48B0F85601ADF80000022549E220
:104D000001262B48B0F85801ADF80000022541E219
:104D100001262748B0F85A01ADF80000022539E213
:104D200001262348B0F85C01ADF80000022531E20D
:104D300001261F48B0F85E01ADF80000022529E207
:104D400001261B48B0F86001ADF80000022521E201
:104D500001261748B0F86201ADF80000022519E2FB
:104D600001261348B0F86401ADF80000022511E2F5
:104D700001260F48B0F86601ADF80000022509E2EF
:104D800001260B48D0F868010090042502E20126B4
:104D90000748B0F86C01ADF800000225FAE10126E1
:104DA0000348B0F86E01ADF800000225F2E1000002
:104DB000F6660020F66700200126FC48B0F8700176
:104DC000ADF800000225E5E10126F848B0F87201CF
:104DD000ADF800000225DDE10126F448B0F87401C9
:104DE000ADF800000225D5E10126F048B0F87601C3
:104DF000ADF800000225CDE10126EC48B0F87801BD
:104E0000ADF800000225C5E10126E848B0F87A01B6
:104E1000ADF800000225BDE10126E448D0F87C0190
:104E200000900425B6E10126E048D0F8800100900A
:104E30000425AFE10126DD48B0F88401ADF800009B
:104E40000225A7E10126D948B0F88601ADF8000097
:104E500002259FE10126D548D0F88801009004255D
:104E600098E10126D148D0F88C010090042591E109
:104E70000126CE48D0F89001009004258AE1012651
:104E8000CA48D0F894010090042583E10126C74860
:104E9000B0F89801ADF8000002257BE10126C34877
:104EA000B0F89A01ADF80000022573E10126BF4871
:104EB000B0F89C01ADF8000002256BE10126BB486B
:104EC000B0F89E01ADF80000022563E10126B74865
:104ED000B0F8A001ADF8000002255BE10126B3485F
:104EE000B0F8A201ADF80000022553E10126AF4859
:104EF000D0F8A401009004254CE10126AB48B0F89D
:104F0000A801ADF80000022544E10126A748D0F829
:104F1000AA01009004253DE10126A448D0F8AE0185
:104F20000090042536E10126A048D0F8B201009097
:104F300004252FE101269D48D0F8B60100900425F4
:104F400028E101269948D0F8BA010090042521E112
:104F500001269648D0F8BE01009004251AE10126EA
:104F60009248D0F8C2010090042513E101268F4831
:104F7000D0F8C601009004250CE101268B48B0F85A
:104F8000CA01ADF80000022504E101268748B0F807
:104F9000CC01ADF800000225FCE001268348B0F802
:104FA000CE01ADF800000225F4E001267F48B0F8FC
:104FB000D001ADF800000225ECE001267B48B0F8F6
:104FC000D201ADF800000225E4E001267748B0F8F0
:104FD000D401ADF800000225DCE001267348B0F8EA
:104FE000D601ADF800000225D4E001266F48B0F8E4
:104FF000D801ADF800000225CCE001266B48D0F8BE
:10500000DA0100900425C5E001266848B0F8DE0109
:10501000ADF800000225BDE001266448B0F8E001CB
:10502000ADF800000225B5E001266048B0F8E201C5
:10503000ADF800000225ADE001265C48D0F8E4019F
:1050400000900425A6E001265848D0F8E801009019
:1050500004259FE001265548D0F8EC010090042576
:1050600098E001265148B0F8F001ADF800000225A3
:1050700090E001264D48B0F8F201ADF8000002259D
:1050800088E001264948B0F8F401ADF80000022597
:1050900080E001264548B0F8F601ADF80000022591
:1050A00078E001264148D0F8F8010090042571E02D
:1050B0006FE001263D48D0F8FC010090042569E02E
:1050C00001263A48D0F800020090042562E001264B
:1050D0003648D0F80402009004255BE001263348EE
:1050E000B0F80802ADF80000022553E001262F4871
:1050F000B0F80A02ADF8000002254BE001262B486B
:10510000D0F80C020090042544E001262748D0F88E
:105110001002009004253DE001262448D0F8140236
:105120000090042536E001262048B0F81802ADF8BA
:10513000000002252EE001261C48B0F81A02ADF846
:105140000000022526E001261848B0F81C02ADF840
:10515000000002251EE001261448B0F81E02ADF83A
:105160000000022516E001261048D0F82002009029
:1051700004250FE001260D48D0F8240200900425F4
:1051800008E001260948B0F82802ADF80000022521
:1051900000E000BF00BF36B104F18001C8B22A466A
:1051A000694600F041F808B070BD0000F6660020C6
:1051B0002DE9F04705460E4617464FF00008C14658
:1051C0002C462078AA282BD1E078401D61788842AF
:1051D00026D16078401C00EB05086078401E00EB8B
:1051E00005096078801E81B2601C00F097F8B9F85C
:1051F0000010884214D1B8F8000045F65B218842BF
:105200000ED1E07820B1E278211D3046FAF7AEFFEA
:10521000E0783870A078034908700120BDE8F08775
:105220000020FBE7AE000020FEB506460F461546FF
:10523000AA208DF80000681DC0B28DF801008DF81D
:105240000260E8B28DF8030080212448FAF7A7FF36
:105250002248009901603FB17C2D05DC25B12A462A
:105260003946001DFAF782FF9DF80100801E81B2C9
:105270001A48401C00F052F8ADF8080045F65B20D3
:10528000ADF80A009DF80100401E14490844029937
:10529000016000241BE09DF80100C01C04F108011E
:1052A000884205DD0D490819082100F019F808E0C9
:1052B0009DF80120D21C121BD1B2084A101900F02F
:1052C0000FF8022001F058FF04F10800C4B29DF865
:1052D0000100C01CA042DEDCFEBD0000460C002028
:1052E00070B504460D462946204607F0D1FB70BD37
:1052F00000200449C8804FF480708880024808600C
:105300007047000000000020C60C00200120014969
:1053100008707047B600002000BFFEE770B5024677
:105320000C46FF25FF2309E012F8010B80EA050176
:105330000648405C80EA03050548435C201EA4F152
:105340000106B4B2F0D145EA032070BD0808010897
:105350000809010810B50246002006E01378434012
:10536000034CE05C521C4B1ED9B20029F6DC10BD88
:10537000C80000200120014908707047B9000020D2
:105380002DE9F04F91B005460E4617464FF0000943
:10539000CA46C846C3462846FAF71EFF814630462D
:1053A000FAF71AFF824615B10EB14F4503DD002012
:1053B00011B0BDE8F08F002402E008F10108641C80
:1053C000BC42FADB002406E02A5D58460BF1010BD3
:1053D00001A90A54641C4C45F6DB002405E0325D4B
:1053E000404608F101082A54641C5445F7DB3C464A
:1053F00006E001A8025D404608F101082A54641C39
:105400004C45F6DB002005F808002846D0E770B5CB
:1054100003460A4600200AE00A25B3FBF5F605FB21
:105420001635303515540A25B3FBF5F3401C002B17
:10543000F2D1411E08E0545C451A6D1E555D55546D
:10544000451A6D1E5455491E00EBD076B1EB660F20
:10545000F1DA70BD0120014908707047B8000020E2
:1054600000B589B04FF4C06008F03AFF06A90020EB
:1054700008F08BFA01A9012008F087FA2D4808F0FE
:10548000E5F840F2197008F02BFF4FF40063032297
:105490004821294808F062FC4FF480530322182168
:1054A000254808F05BFC00208DF81C008DF81D00DD
:1054B0008DF81E008DF81F008DF820008DF821005A
:1054C0008DF818008DF8190004208DF81A000220BC
:1054D0008DF81B000C20ADF8220006A9154808F035
:1054E0004DF90020ADF80E00ADF810000120ADF828
:1054F00012000020ADF80400ADF80600ADF8080079
:10550000ADF80A00ADF80C0001208DF8140001A8D8
:1055100008F0ACF80221074808F0C1F90749032058
:1055200008F033FA00221146142008F0DBFD09B020
:1055300000BD000000640040000801403405002068
:1055400010B5812008F0FCFE04460C480078A0420B
:1055500011D10B480078062805DA09480078401C6C
:105560000749087009E00748407820F00400001D52
:105570000449487001E00148047010BD5B0200203E
:1055800058020020420200200120014908707047A3
:10559000C90100200148006880B270473402002031
:1055A000014800787047000046020020704701B5AE
:1055B000BDF8000000EBC00101EB00104FF6FF71D9
:1055C00001EAC000009004E0BDF80000401E80B277
:1055D0000090BDF800000028F6D108BD002001E0D1
:1055E000411CC8B21428FBDB7047000001200149B0
:1055F00008707047A80200200148D0F8CC0170471D
:1056000030120020014890F8AB01704730120020A2
:105610000148D0F8B8017047301200200448D0F893
:10562000B001C0EB001080004FF47A71484370471E
:10563000301200200148D0F8D40170473012002009
:105640000348D0F8D0014FF47A7148437047000006
:105650003012002010B50548FAF7C5FD0446C4EB2A
:10566000041080004FF47A71484310BD38130020B5
:105670000148D0F8BC0170473012002010B54FF43B
:1056800023714848FAF78BFD464A4FF423710020F6
:1056900000F0EEF84348D0F88802434988427DD0B4
:1056A00040480078FF2805D14FF423713D48FAF7B0
:1056B00076FD05E04FF409713A486830FAF76FFD5E
:1056C000982138486830FAF76AFD384800210160AF
:1056D00041608160C16098211030FAF760FD0F22AF
:1056E00033A130486830FAF741FD1C2234A12F481D
:1056F0005838FAF73BFD2D48183839A10A6802607E
:105700000979017138A10A68C0F806208A884281A7
:10571000897901730E3036A10A68026049684160D8
:105720001C2236A15A30FAF721FD204890303BA1C7
:105730000A680260097901711A483AA10A68C0F83A
:105740009621097980F89A1138A10A68C0F89E213B
:105750004968C0F8A2110120124981F8A80105206A
:1057600081F8A901C1F8AC010220C1F8B001012003
:10577000C1F8B8010020C1F8BC011E20C1F8D00159
:105780000020C1F8D401C1F8500230212A48FAF7AC
:1057900006FD05480349C1F8880200E001E000F079
:1057A00087F810BD30120020674523013013002018
:1057B0006F72616E67652E6D326D2E73706563005A
:1057C0006D7174742D636C69656E74312E6F6D6EBE
:1057D00069766F6C746169632E636F6D0000000001
:1057E0003138383834000000436C69656E7431001C
:1057F00033517470466E4453000000006D71747430
:105800002D666163746F72792E6F6D6E69766F6C41
:10581000746169632E636F6D0000000031383838A1
:105820003300000041646D696E00000037787A55DE
:1058300056404D54000000008414002010B50A4862
:10584000007880B100200849087005F0D1FA0446BC
:10585000682221460548FAF789FC044A4FF423716F
:10586000002000F02BF810BD600200203012002054
:1058700070B504460D461646AAB2A1B23346A02022
:1058800001F0F3FD70BD000000B50246024880F84B
:10589000AB2100F00DF800BD3012002000B502462B
:1058A0000248C0F8BC2100F003F800BD301200200F
:1058B0000120014908707047600200202DE9F04185
:1058C00006460D46174600244FEA551800BF0CE067
:1058D00007EB441306EB441081B22022A02001F014
:1058E00003FE052001F048FC641C4445F0D305F09C
:1058F0001F0048B107EB441305F01F0206EB4410EC
:1059000081B2A02001F0F0FDBDE8F08110B50120CA
:1059100008F0C2F928B1012001F03EFC012008F096
:10592000B5F910BD10B54FF4C06008F0D9FC4FF4C4
:10593000A06008F02DFC02221146062008F0D2FBE0
:105940000021012008F0BEF901220021104608F0D4
:105950003FF9012008F09AF910BD00002DE9F04F41
:1059600085B00027B846B946BA46BB4676480678A1
:105970004FF480517548FAF712FC14216846FAF783
:105980000EFC724C7248D0F8500220B17048D0F82A
:105990005002082800D300266EA000782070204610
:1059A000FAF71AFC04446A48D0F8500220B168485B
:1059B000D0F85002082805D367A269A1204607F055
:1059C000C5F908E006EB4601694800EB410264A115
:1059D000204607F0BBF92046FAF7FEFB044465A019
:1059E0000168216000792071641D002512E0C6EB7A
:1059F000C60000EB4620614901EB800050F82520ED
:105A00005FA1204607F0A2F92046FAF7E5FB04441F
:105A1000681C85B23C2DEADB5AA10A6844F8012CC7
:105A20008A88A4F8032089796171A41D002513E0F8
:105A3000C6EBC60000EB4620504901EB8000F03079
:105A400050F825204EA1204607F080F92046FAF7AD
:105A5000C3FB0444681C85B23C2DE9DB4BA10A68FA
:105A600044F8012C8A88A4F8032089796171A41D67
:105A7000002514E0C6EBC60000EB46203F4901EBD1
:105A8000800000F5F07050F825203DA1204607F079
:105A90005DF92046FAF7A0FB0444681C85B2182D76
:105AA000E8DB3CA10A6844F8012C8A88A4F80320AA
:105AB00089796171A41D002514E0C6EBC60000EBD6
:105AC00046202E4901EB800000F5107050F825208B
:105AD0002BA1204607F03AF92046FAF77DFB044453
