:020000040800F2
:102000009084002049210008F5B60008E5910008F9
:1020100059A200089971000829EC0008000000008E
:10202000000000000000000000000000B1DD00081A
:102030002D74000800000000CDD1000805E0000864
:102040006321000863210008632100086321000860
:1020500063210008632100088D77000863210008D0
:102060006321000863210008632100086321000840
:102070006321000863210008632100086321000830
:102080006321000863210008632100086321000820
:102090004DE900086321000863210008632100085E
:1020A0006321000863210008632100086321000800
:1020B00063210008632100086321000863210008F0
:1020C00063210008632100086321000863210008E0
:1020D0006321000835E800088DE80008EDE80008F5
:1020E00063210008632100086321000863210008C0
:1020F00063210008632100086321000863210008B0
:10210000632100086321000863210008632100089F
:1021100075E70008D5E7000863210008632100087F
:10212000632100086321000863210008632100087F
:10213000DFF810D000F050FB00480047F1FE000827
:10214000AFF300809084002006488047064800478F
:10215000FEE7FEE7FEE7FEE7FEE7FEE7FEE7FEE757
:10216000FEE7FEE711E000083121000840EA010324
:102170009B0703D009E008C9121F08C0042AFAD23D
:1021800003E011F8013B00F8013B521EF9D2704701
:10219000D2B201E000F8012B491EFBD270470022A9
:1021A000F6E710B513460A4604461946FFF7F0FF56
:1021B000204610BD30B505462A460B4612F8010BE5
:1021C00013F8014B08B1A042F8D01CB1002802D08E
:1021D0006D1CF1E7284630BD421C10F8011B002998
:1021E000FBD1801A704770B506460CF033FD0468C9
:1021F00005460A220021304600F028FA2C6070BD06
:102200002DE9FE4F804681EA0300C00F0C46009086
:1022100021F0004123F00045B8EB0200A94105D2AE
:102220004046214690461C460B46024623F000409D
:10223000104347D0270DC7F30A00C3F30A51029099
:10224000401A019040286BDAC3F3130040F4801B5E
:102250000098924620B10023D2EB030A63EB0B0BEC
:1022600001985946C0F14002504600F0BEF90646BA
:102270000D4650465946019A00F0D6F910EB080079
:102280006141002487EA115284EAE7731A4340D07F
:10229000009A62B3019A012A4FEA075215DC001B2B
:1022A00061EB02014FF0004202EA0752CDE9004221
:1022B000001C41F5801132462B4600F00EFA03B0A7
:1022C000BDE8F08F40462146F9E7001B61EB0201B3
:1022D000001C41F5801300185B412018A2F500177F
:1022E00047EB030140EAD570B6196D4111E06D0866
:1022F0004FEA360645EAC0754FEA0752001B61EB0C
:102300000201001C41F5801149084FEA3000001914
:10231000514132462B4603B0BDE8F04F00F0CEB934
:102320000098012240000023D0EB020263EBE0732F
:10233000009821464FEAE074B8EB000061EB04011D
:10234000E9E783F000435BE781F0004158E72DE9BE
:10235000FE4F81EA030404F0004421F000410094A0
:102360004FF0000B23F0004350EA01045ED052EA24
:1023700003045BD0C3F30A54C1F30A552C44A4F2FE
:10238000F3340194A0FB0254C1F3130141F4801112
:10239000C3F3130343F4801301FB024400FB034E19
:1023A000840A970A44EA815447EA8357A4FB0768E2
:1023B00002958D0A05FB07854FEA932C04FB0C540C
:1023C0002705029D4FEA065847EA1637B5EB080580
:1023D0006EEB070C870E920E47EA811742EA8312D2
:1023E000A7FB0201B6EB0B0164EB00042B0D43EAE3
:1023F0000C335E1844EB1C50DA465146E7FB0201F1
:10240000C5F313044FEA0B3343EA14534FEA043283
:10241000019C43EA0603A4F10C040294009CCDE95C
:1024200000B400F05AF903B0BDE8F08F0020014677
:10243000F9E72DE9F04D81EA030404F0004B21F0A7
:10244000004514464FF0000A23F0004150EA05020F
:1024500020D054EA01021DD0C5F30A570246C5F345
:102460001303C1F31300C1F30A5640F4801543F47B
:102470008013A7EB0608101BD64608F2FD3873EB55
:10248000050002D308F1010801E092185B41B8F1A0
:10249000000F03DA00200146BDE8F08D00204FF464
:1024A0008011064684460EE0171B73EB050705D323
:1024B000121B63EB050306434CEA010C49084FEA83
:1024C000300092185B4150EA0107EDD152EA030057
:1024D00012D082EA040083EA0501084305D0101BEC
:1024E000AB4106D20122002306E000224FF0004358
:1024F00002E06FF0010253101AEB06004CEB08519A
:1025000010EB0A0041EB0B01BDE8F04D00F0D6B82E
:102510000EB540F2334102910021CDE900110A4687
:102520000B4600F0DAF803B000BDC1F30A5210B553
:10253000C1F3130140F2FF3341F480119A4201DAF2
:10254000002010BD40F233439A42A2F2334203DC32
:10255000524200F059F810BD904010BD30B50B4606
:10256000014600202022012409E021FA02F59D42C3
:1025700005D303FA02F5491B04FA02F52844151E97
:10258000A2F10102F1DC30BD2DE9F05F054600202B
:1025900092469B4688460646814640241BE02846D4
:1025A00041464746224600F02FF853465A46C01A85
:1025B000914110D311461846224600F016F82D1A04
:1025C00067EB01084F4622460120002100F00DF87C
:1025D00017EB00094E41201EA4F10104DFDC484640
:1025E00031462A464346BDE8F09F202A04DB203AC4
:1025F00000FA02F1002070479140C2F1200320FA56
:1026000003F3194390407047202A04DB203A21FA53
:1026100002F00021704721FA02F3D040C2F12002FB
:102620009140084319467047202A06DBCB17203A11
:1026300041FA02F043EAE07306E041FA02F3D040C7
:10264000C2F1200291400843194670472DE9F04736
:1026500091460F4680460446002614F8015B2DB1D2
:1026600000F0CCF80068405DC007F6D12B2D02D0F9
:102670002D2D18D0641E4A463946204600F0C2F877
:1026800027B13968A14201D1C7F8008071054FF028
:1026900002040BD54042002803DD0CF0DBFA046095
:1026A000A007BDE8F08746F48066E4E70028F8DA82
:1026B0000CF0D0FA04606FF00040F2E710B5141E81
:1026C00073F1000408DA401C41F1000192185B41EB
:1026D0001A4301D120F0010010BD2DE9F04D9246C2
:1026E0009B4611B1B1FA81F202E0B0FA80F22032D9
:1026F0009046FFF77AFF04460F4640EA0A0041EA97
:102700000B0153465A46084313D0114653EA0100C1
:1027100019D0C8F140025046FFF776FF05460E4635
:10272000504659464246FFF760FF084305D0012056
:1027300004E020463946BDE8F08D0020054346EA16
:10274000E0762C4337430A986305E40AA0EB0800BF
:102750000022FD0A44EA47540A3002D5002001460F
:10276000E9E7010510196941DDE9084500196941EA
:10277000BDE8F04DA2E7C1F30A52C1F3130140F2E4
:10278000FF3341F480119A4202DA0020014670477B
:1027900040F233439A42A2F2334202DC5242FFF744
:1027A00033BFFFF722BF000030B5041E71F10004F3
:1027B00004DB4FF00044404264EB0101141E73F14E
:1027C000000405DB1C464FF00043524263EB040358
:1027D000994208BF904230BD064C074D06E0E068C4
:1027E00040F0010394E8070098471034AC42F6D358
:1027F000FFF7A2FCA0560108C05601080048704728
:102800006C4001082DE9F05F8246007800271546EC
:102810008B460AF10104B946302801D09DB113E07E
:1028200014F8010B0127782803D0582801D045B1AE
:102830000AE00DB1102D07D10027102514F8010B67
:1028400002E0082500E00A250026B0460EE005FB60
:10285000080005FB06F1012701EB10461FFA80F87E
:10286000B6F5803F00D3B94614F8010B294600F0B5
:1028700018F80028EBDABBF1000F05D00FB1641E89
:1028800000E05446CBF80040B9F1000F06D00CF040
:10289000E1F902210160C81EBDE8F09F48EA064048
:1028A000FAE73A2800D2303820F02002412A01D33A
:1028B000A2F13700884201D34FF0FF30704770B566
:1028C0008C1810F8015B15F0070301D110F8013BDB
:1028D0002A1106D110F8012B03E010F8016B01F862
:1028E000016B5B1EF9D12B0705D40023521E0DD4BA
:1028F00001F8013BFAE710F8013BCB1A921C03E008
:1029000013F8015B01F8015B521EF9D5A142D8D33F
:10291000002070BD10B5002400BF20E0C4EBC4014E
:1029200001EB4421144A02EB810040F61C01FFF741
:1029300036FCC4EBC40101EB44210F4B03EB8102D5
:1029400004EB44014FF4806303EB812040F61C014B
:1029500004F0CEFE052006F071FB601CC4B2082C0A
:10296000DCDB05480068401C20B944F2E001024865
:10297000FFF715FC10BD0000241500202DE9F043E1
:102980008BB0002600200A90099015200BF094FCD3
:10299000002873D015200BF06BFCF948D0F85002DA
:1029A000002862D0F7480088401CF6490880084695
:1029B0000088B0F5616F58DB202101A8FFF7EFFB1D
:1029C000F1480088C0EBC00101EB4020EF4901EB6A
:1029D0008007202101A8FFF7E2FBEB49098801EB02
:1029E00041014FF4806202EB8121E94A1288881884
:1029F00001AA202104F07CFEE54800880744002459
:102A00000FE001A8005D395D884208D0022006F081
:102A100015FB3A462021480104F090FE03E0601CBB
:102A200084B2202CEDD300BFD94800882030D8498B
:102A300008800846008840F61C01884214D3002014
:102A4000D3490880D0480088401CCF490880CC4832
:102A5000D0F850020988884206D80020CC49088066
:102A6000C9490880C749088000BF00241FE2022727
:102A70004FF000084FF0000900BF3DE01FE24FF0AB
:102A800000082EE000200790089007AA414638462B
:102A900005F0BCFA08B304EB4402BE4901EB420066
:102AA00007A9FFF787FBC0B100200A900990032F08
:102AB00008D1B8F1040F05D10AAA4146384605F0FD
:102AC00023FA07E009AA4146384605F01DFABDF889
:102AD00024000A904FF0010907E008F1010000F01E
:102AE000FF08AD48C05D4045CCDC00BFB9F1000F28
:102AF00000D003E0781CC7B2052FC0DB00BFA74899
:102B000000EB041000683C2814D3C4EBC40101EBB3
:102B100044219E4A02EB81003B210BF019F9C4EBE2
:102B2000C40101EB4421994A02EB81010A98C1F8E2
:102B3000EC0012E0994800EB041000683C21B0FB67
:102B4000F1F201FB1200C4EBC40101EB44218F4AF6
:102B500002EB81010A9A41F82020904800EB041012
:102B60000068401C8D4901EB041108608B4800EBA4
:102B70000410006800287DD0884800EB041000682D
:102B80003C21B0FBF1F201FB1200002872D10026BB
:102B900000250BE0C4EBC40000EB44207B4901EBB3
:102BA000800050F825000644681C85B23C2DF1DBFE
:102BB0007A4800EB041040683C2818D3C4EBC401E9
:102BC00001EB4421714A02EB810101F1F0003B214C
:102BD0000BF0BEF83C20B6FBF0F1C4EBC40000EBF8
:102BE00044206A4A02EB8000C0F8DC1115E03C206A
:102BF000B6FBF0F1694800EB041040683C22B0FBE2
:102C0000F2F302FB1302C4EBC40000EB44205F4B61
:102C100003EB8000F03040F82210604800EB041015
:102C20004068401C5D4901EB041148605B4800EBC3
:102C30000410406800289ED0584800EB04104068FB
:102C40003C21B0FBF1F201FB120000289ED10026CE
:102C500000250CE0C4EBC40000EB44204B4901EB21
:102C60008000F03050F825000644681C85B23C2DE9
:102C7000F0DB00E0C2E0494800EB0410806818284F
:102C800018D3C4EBC40101EB4421404A02EB81019B
:102C900001F5F07017210BF05BF83C20B6FBF0F16A
:102CA000C4EBC40000EB4420384A02EB8000C0F8BB
:102CB0003C1216E03C20B6FBF0F1384800EB041063
:102CC00080681822B0FBF2F302FB1302C4EBC400CD
:102CD00000EB44202D4B03EB800000F5F07040F832
:102CE00022102E4800EB04108068401C2B4901EB99
:102CF00004118860294800EB0410806800287DD00A
:102D0000264800EB041080681821B0FBF1F201FBAB
:102D10001200002872D1002600250DE0C4EBC4008B
:102D200000EB4420194901EB800000F5F07050F8E9
:102D300025000644681C85B2182DEFDB174800EB10
:102D400004108089B0F5B67F2ADDC4EBC40101EB25
:102D500044210E4A02EB810101F510704FF4B67167
:102D60000AF0F6FF1820B6FBF0F1C4EBC40000EB4C
:102D70004420064A02EB8000C0F8F01728E000006B
:102D8000181200205A0200205E02002024150020A4
:102D90005C0200206C14002094280108A414002078
:102DA0001820B6FBF0F1474800EB0410808940F290
:102DB0006D1290FBF2F302FB1302C4EBC40000EBB4
:102DC0004420414B03EB800000F5107040F82210C6
:102DD0003C4800EB04108089401C3A4901EB041187
:102DE0008881384800EB0410808900285DDD354873
:102DF00000EB0410808940F26D1100E038E090FB98
:102E0000F1F201FB120098BB002600250DE0C4EB97
:102E1000C40000EB44202C4901EB800000F5107049
:102E200050F825000644681C85B2B5F5B67FEEDD86
:102E3000244800EB0410C0890A281ADBC4EBC40143
:102E400001EB4421204A02EB810101F2F4700921D7
:102E50000AF07EFF40F26D10B6FBF0F1C4EBC40047
:102E600000EB4420184A02EB8000C0F8181813E069
:102E70001BE040F26D10B6FBF0F1C4EBC40000EBB8
:102E80004420114A02EB800000F2F4700D4A02EB7C
:102E90000412D28940F822100A4800EB0410C089BD
:102EA000401C084901EB0411C881601C84B2082C45
:102EB00005DA0648D0F85002A0423FF6D8AD0BB074
:102EC000BDE8F083A414002024150020181200206F
:102ED00001200149087070474700002010B50246E4
:102EE0000B4606480088504300EB4004C4EB8010BA
:102EF000000B0A24B0FBF4F188B210BD30000020B2
:102F000002460B464FF49600B0FBF2F000F12D01A3
:102F100088B27047704700002DE9F0430025002675
:102F20000027A846A94600240AE0184830F82400E3
:102F30000544164800EB840040880644601CC4B277
:102F40001E2CF2DB1E20B5FBF0F5B6FBF0F61E21C1
:102F50003046FFF7D5FF0E4908801E212846FFF7AF
:102F6000BDFF0C4908800A48008832380A490988A0
:102F7000884209DC0020094908700948407820F09F
:102F80002000203006494870BDE8F0834406002048
:102F90003000002032000020440000209E0200206B
:102FA0003A0200202DE9F04704460D462846FFF777
:102FB00013F9C6B2A019222100F052FBC7B2202F8C
:102FC00000DB202720211448FFF7E9F8A1193A4631
:102FD0001148FFF7CBF81148FFF7FEF88046284666
:102FE000FFF7FAF8C0F180090B48FFF7F5F8A9EBF5
:102FF0000000801E80450BD20848FFF7EDF8074916
:1030000000EB0108044B2A4605A140460BF00EFEDA
:1030100004F08EFBBDE8F08780120020CA0A002071
:1030200025732573222C00002DE9F04704460D4638
:103030002846FFF7D1F8C6B2A019222100F010FBF4
:10304000C7B2102F00DB102716480021016341632F
:103050008163C163A1193A463030FFF787F81248FF
:10306000FFF7BAF880462846FFF7B6F8C0F18009A6
:103070000C483030FFF7B0F8A9EB0000801E804507
:103080000CD20948FFF7A8F8074900EB0108054BE7
:1030900030332A4605A140460BF0C8FD04F048FB3A
:1030A000BDE8F08780120020CA0A0020257325732E
:1030B000222C00002DE9F04704460D462846FFF774
:1030C0008BF8C6B2A019222100F0CAFAC7B2102F9D
:1030D00000DB102716480021016241628162C16253
:1030E000A1193A462030FFF741F81248FFF774F86B
:1030F00080462846FFF770F8C0F180090C48203060
:10310000FFF76AF8A9EB0000801E80450CD2094841
:10311000FFF762F8074900EB0108054B20332A4608
:1031200005A140460BF082FD04F002FBBDE8F087EC
:1031300080120020CA0A002025732573222C00006B
:103140002DE9F04704460D462846FFF745F8C6B27C
:10315000A019222100F084FAC7B2402F00DB4027DB
:1031600040211448FFF71BF8A1193A461148FEF711
:10317000FDFF1148FFF730F880462846FFF72CF88E
:10318000C0F180090B48FFF727F8A9EB0000801E6B
:1031900080450BD20848FFF71FF8074900EB0108EC
:1031A000044B2A4605A140460BF040FD04F0C0FA4E
:1031B000BDE8F087C0120020CA0A002025732573DD
:1031C000222C000010B590B0044640216846FEF75E
:1031D000E6FF40216846FEF7E2FF012204A16846AF
:1031E0000BF024FD684602F081FC10B010BD000019
:1031F00041542B43474143543D312C25640D0A0073
:1032000010B590B0044640216846FEF7C8FF402143
:103210006846FEF7C4FF054A05A168460BF006FDA7
:10322000684602F063FC10B010BD00008012002060
:1032300041542B434744434F4E543D312C22495077
:10324000222C222573220D0A00000000F0B585B063
:1032500005462846FEF7C0FF86B2002004901A20DB
:1032600003900120029007F0A5FF401E132804D010
:1032700014280BD0162808D146E02E215B4800F018
:103280003FFA012103A800F03BFAACE002F0B8FDE0
:1032900082200490012104A800F032FA5448FEF77D
:1032A0009BFFC0B201909DF80400401D00900121D9
:1032B000684600F025FA00200490012104A800F0DF
:1032C0001FFA01200490012104A800F019FA00203F
:1032D0000490012104A800F013FA012101A800F0D4
:1032E0000FFA9DF80410424800F00AFA00200490FA
:1032F000012104A800F004FA0A2005F09FFE012134
:1033000003A800F0FDF96EE007F04EFF072814D285
:10331000DFE800F004070A0B0C0D100004F0ACFB12
:103320000BE004F0A9FB08E007E006E005E004F08C
:10333000E3FE02E004F074FA00BF00BF04F034FEC4
:10334000074630200490012104A800F0D9F929484B
:10335000FEF742FFC0B201903846FEF73DFF84B24F
:103360009DF804002044801C80B20090BDF800004D
:103370007F2819DDBDF80000C11700EB5161C1F3D2
:10338000C71102919DF80800401EBDF80010A1EB86
:10339000C01080B200900121684600F0B1F901210F
:1033A00002A800F0ADF903E00121684600F0A8F999
:1033B00000200490012104A800F0A2F9012101A835
:1033C00000F09EF99DF804100A4800F099F90A20CF
:1033D00005F034FE2146384600F092F9012103A899
:1033E00000F08EF900BF00BF05B0F0BD75000020F1
:1033F000F20B0020B20B00200121034A11700021C2
:10340000024A11707047000055000020540000204F
:1034100010B5A2B004461648FEF7DEFE082821D9F2
:1034200013484630FEF7D8FE88B111484E30FEF7FB
:10343000D3FE60B10E494E31A1F10800831F0C4A42
:10344000CDE900010BA102A80BF0F0FB06E0084B50
:103450004033074A11A102A80BF0E8FB02A802F0D2
:1034600045FB03E01548006802F040FB22B010BDA8
:10347000C012002041542B43495053544152543DF3
:1034800022544350222C222573222C222573222CD5
:10349000222573222C222573220D0A0041542B432E
:1034A000495053544152543D22544350222C22251A
:1034B00073222C222573220D0A00000070000020C8
:1034C00010B590B0044640216846FEF768FE054AF4
:1034D00005A168460BF0AAFB684602F007FB10B096
:1034E00010BD0000BC0A002041542B434D47523D03
:1034F00025730D0A0000000070B505461A48FEF756
:103500006BFE07280AD81848FEF766FE16490844DD
:10351000441E16A120460BF089FB0EE01248FEF770
:103520005BFE7D2809D21048FEF756FE0E4908447E
:10353000441E11A120460BF079FB0B4802F0D6FA8D
:10354000022005F07BFD01210C4800F0D9F8802114
:103550000548FEF724FE044909A002680A60828833
:103560008A808079887170BDCA0A00206572726F86
:10357000727D0D0A000000007D0D0A00650000202C
:103580007265706C793A7B0010B5044606A002F0B3
:10359000ADFA084802F0AAFA07A002F0A7FA14212F
:1035A0000448FEF7FCFD10BD41542B434D47533DED
:1035B000220000004A0B0020220D0A0070B50546CB
:1035C00000240A2005F03AFD70BD000010B5A2B03D
:1035D00004461448FEF700FEE8B112482030FEF71A
:1035E000FBFD78B10F483030FEF7F6FD50B10D48C5
:1035F0003030A0F110030B4A0BA1009002A80BF091
:1036000015FB04E0074A0FA102A80BF00FFB02A86C
:1036100002F06CFA03E01148006802F067FA22B089
:1036200010BD00008012002041542B435354543DE0
:10363000222573222C222573222C222573220D0A87
:103640000000000041542B435354543D2225732263
:103650002C22222C22220D0A000000006C000020E7
:1036600010B502460B460020002100BF03E0441CB9
:10367000A0B24C1CA1B2545C9C4202D0545C002C01
:10368000F5D110BD10B5002013490870134908701A
:103690004FF480611248FEF782FD00201149086056
:1036A0001149086080211148FEF779FD0F4810A1EB
:1036B0000A6802608A8882808979817114210E48A3
:1036C000FEF76DFD06480D4908600020C8804FF4E4
:1036D0008060888010BD000054000020550000204C
:1036E000BC060020600000205C000020CA0A002008
:1036F0007265706C793A7B004A0B0020080000204C
:1037000070B504460D46294620460BF09DF904216C
:1037100003A00BF041FA294620460BF03DFA70BD9C
:103720004D43553A000000002DE9F04704460D4690
:103730002846FEF751FDC6B2A0192221FFF790FFDF
:10374000C7B2082F00DB0827144800210160416040
:10375000A1193A46FEF70AFD1148FEF73DFD8046E5
:103760002846FEF739FDC0F180090C48FEF734FD0C
:10377000A9EB0000801E80450BD20948FEF72CFD06
:10378000074900EB0108054B2A4606A140460BF00D
:103790004DFA03F0CDFFBDE8F087000018130020BC
:1037A000CA0A002025732573222C000070B5044638
:1037B00004EB8400144901EB8005144804700020D8
:1037C000134908701148007800B970BD4FF480614A
:1037D0001048FEF7E4FC00200F49C8804FF48060D9
:1037E00088800C48086000200C4908600C4908607B
:1037F000E86830B1286820B1312C02DAE9686868DD
:10380000884700BFE1E70000302201085400002093
:1038100055000020BC0600200800002060000020A9
:103820005C00002010B590B0044640216846FEF7C9
:10383000B6FC40216846FEF7B2FC0B480078012830
:1038400006DB0AA301220CA168460BF0EFF905E0A4
:103850000FA3002208A168460BF0E8F9684602F0C1
:1038600045F910B010BD0000A40000207465737409
:103870006D7174743200000041542B434D51545407
:10388000414343513D25642C222573220D0A00003B
:10389000746573746D7174743100000010B5A4B058
:1038A0000446802104A8FEF77AFC802104A8FEF7D4
:1038B00076FC2348007801281DDB2248FEF78CFCAB
:1038C00050B92048801FA0F1400301221EA10090A2
:1038D00004A80BF0ABF92DE01A490831194A901FE2
:1038E000A0F14003CDE901210090012221A104A80B
:1038F0000BF09CF91EE01348A830FEF76DFC50B9A0
:103900001048A230A0F1400300220FA1009004A8AB
:103910000BF08CF90EE00B49B031A1F10802901FB9
:10392000A0F14003CDE901210090002211A104A8DB
:103930000BF07CF904A802F0D9F824B010BD000007
:10394000A40000200613002041542B434D51545431
:10395000434F4E4E4543543D25642C227463703AC8
:103960002F2F25733A2573222C373230302C312CEF
:103970002C0D0A0041542B434D515454434F4E4E8D
:103980004543543D25642C227463703A2F2F2573D0
:103990003A2573222C373230302C312C22257322D9
:1039A0002C222573220D0A0070B5054604F0FCFA9E
:1039B0000446204602F09AF801A002F097F870BD84
:1039C0000D0A000070B5A0B0064680216846FEF7DB
:1039D000E6FB04F0E9FA044680216846FEF7DFFBC7
:1039E0001048007801280ADB2046FEF7F5FB054663
:1039F0002B4601220CA168460BF018F909E020467D
:103A0000FEF7EAFB05462B46002207A168460BF0AD
:103A10000DF9684602F06AF84FF47A7005F00EFB73
:103A200020B070BDA400002041542B434D5154548C
:103A30005041594C4F41443D25642C25640D0A00EA
:103A40002DE9F04704460D462846FEF7C5FBC6B2F1
:103A5000A0192221FFF704FEC7B20A2F00DB0A27B4
:103A600014480021016041600181A1193A46FEF726
:103A70007DFB1148FEF7B0FB80462846FEF7ACFB05
:103A8000C0F180090B48FEF7A7FBA9EB0000801EE0
:103A900080450BD20848FEF79FFB074900EB010861
:103AA000044B2A4605A140460BF0C0F803F040FE47
:103AB000BDE8F0870E130020CA0A00202573257385
:103AC000222C000030B5A1B00546802101A8FEF7E8
:103AD00066FB802101A8FEF762FB04F065FA04464C
:103AE00009480078012805DB502208A101A80BF045
:103AF0009DF804E050220BA101A80BF097F801A853
:103B000001F0F4FF21B030BDA400002041542B434C
:103B10004D5154545055423D312C312C25640D0AE1
:103B20000000000041542B434D5154545055423D28
:103B3000302C312C25640D0A0000000010B504461D
:103B4000034801F0D3FF03A001F0D0FF10BD000037
:103B5000F20B00200D0A000030B5A1B0054680210F
:103B600001A8FEF71CFB802101A8FEF718FB0F48F7
:103B7000007801280ADB0E48FEF72EFB0446234698
:103B800001220CA101A80BF051F809E00848FEF74A
:103B900023FB04462346002206A101A80BF046F8A9
:103BA00001A801F0A3FF21B030BD0000A400002057
:103BB000F20B002041542B434D5154545355423D78
:103BC00025642C25642C310D0A00000010B5044634
:103BD000034801F08BFF03A001F088FF10BD000037
:103BE000F20B00200D0A000030B5A1B0054680217F
:103BF00001A8FEF7D4FA802101A8FEF7D0FA0F48F9
:103C0000007801280ADB0E48FEF7E6FA0446234650
:103C100001220CA101A80BF009F809E00848FEF701
:103C2000DBFA04462346002206A101A80AF0FEFFA3
:103C300001A801F05BFF21B030BD0000A40000200E
:103C4000F20B002041542B434D51545453554254D0
:103C50004F5049433D25642C25642C310D0A00004A
:103C600010B50446034801F041FF03A001F03EFFF8
:103C700010BD0000B20B00200D0A000030B5A1B04D
:103C80000546802101A8FEF78AFA802101A8FEF7E7
:103C900086FA0F48007801280ADB0E48FEF79CFAE6
:103CA0000446234601220CA101A80AF0BFFF09E047
:103CB0000848FEF791FA04462346002206A101A80F
:103CC0000AF0B4FF01A801F011FF21B030BD0000DF
:103CD000A4000020B20B002041542B434D515454FA
:103CE000544F5049433D25642C25640D0A000000C3
:103CF00010B50446034801F0F9FE03A001F0F6FEFA
:103D000010BD0000F20B00200D0A000030B5A1B07C
:103D10000546802101A8FEF742FA802101A8FEF79E
:103D20003EFA0F48007801280ADB0E48FEF754FAE5
:103D30000446234601220CA101A80AF077FF09E0FE
:103D40000848FEF749FA04462346002206A101A8C6
:103D50000AF06CFF01A801F0C9FE21B030BD0000DF
:103D6000A4000020F20B002041542B434D51545429
:103D7000554E5355423D25642C25642C300D0A00C8
:103D80002DE9F04704460D462846FEF725FAC6B24F
:103D9000A0192221FFF764FCC7B2082F00DB082717
:103DA0001448002101604160A1193A46FEF7DEF98E
:103DB0001148FEF711FA80462846FEF70DFAC0F1C9
:103DC00080090C48FEF708FAA9EB0000801E804528
:103DD0000BD20948FEF700FA074900EB0108054B32
:103DE0002A4606A140460AF021FF03F0A1FCBDE8E7
:103DF000F087000006130020CA0A002025732573EF
:103E0000222C00002DE9F34FABB000202A90814610
:103E1000299000242890279000262B980690A246EF
:103E2000A346002005902C98312805DA2C9800EB49
:103E30008000FE4901EB800AFDA10698FEF7BAF961
:103E400070B1FD48007824280ADB00220121FB48DC
:103E50000BF066FF4FF4167005F0F0F807F0B0F9BC
:103E6000F7A10698FEF7A6F948B1F3480078242890
:103E700005DB0220FFF79AFC2620EF490870F4A129
:103E80000698FEF797F928B10720FFF78FFC072067
:103E9000E9490870F1A10698FEF78CF920B1EFA16D
:103EA0000698FEF787F90446EEA10698FEF782F918
:103EB000002837D0EDA10698FEF77CF948B9EE4806
:103EC000007818B13120DC49087002E02420DA497A
:103ED0000870EAA10698FEF76DF9E2A10698FEF7D0
:103EE00069F90446A41D002709E02C212046FFF7AC
:103EF000B7FB814609F101000444781CC7B2052FC5
:103F0000F3DB2C212046FFF7ABFB8146B9F1180FFC
:103F100008DA1821DB48FEF742F94A462146D9481B
:103F2000FEF724F9D8A10698FEF744F958B1D8A1B4
:103F30000698FEF73FF918B1012004F03BFE02E0BD
:103F4000002004F037FED4A10698FEF733F928B11B
:103F50001120D34908700120D2490870CAA10698DF
:103F6000FEF728F920B9B2A10698FEF723F978B137
:103F7000CB48007807280BD1C5A10698FEF71AF99F
:103F800018B1012004F016FE02E0002004F012FE39
:103F9000002717E007EB4700C34901EB800BDBF874
:103FA000040068B1DBF8080050B1DBF80410069893
:103FB00001F09EFF04461CB12046DBE90112904748
:103FC000781CC7B20C2FE5D3B8A10698FEF7F2F81B
:103FD00090B1B6A10698FEF7EDF804460E21B5485B
:103FE000FEF7DDF82C21E01DFFF73AFB81464A463B
:103FF000E11DB048FEF7BAF8AFA10698FEF7DAF86F
:10400000AFA10698FEF7D6F8AFA10698FEF7D2F852
:1040100050B12C21E01DFFF723FB81460020AC4965
:1040200008700120AB490870ABA10698FEF7C2F8F2
:104030000446ACB32C212046FFF712FB814609F160
:10404000010004442C212046FFF70AFB8146002092
:104050000190029003900490B9F1100F04DC4A46DD
:10406000214601A8FEF782F801A804F06DFA09F1D3
:10407000010004442C212046FFF7F2FA814600207B
:104080000190029003900490B9F1100F04DC4A46AD
:10409000214601A8FEF76AF801A804F03DFA00BF26
:1040A0008FA10698FEF786F80446CCB10020039055
:1040B00004902C21A01DFFF7D3FA8146B9F1080F17
:1040C00001DD4FF008094A46A11D03A8FEF74EF88E
:1040D00003A8FEF788F880B2029004F001FA00BF4E
:1040E0008149069801F004FF2890289800287DD087
:1040F0007E492898FEF75EF80028F8D07CA1289821
:10410000FEF758F80446002C71D0142004F096FFF6
:1041100000247BA12898FEF74DF80446002C75D0AA
:1041200078A12898FEF746F818B100207A4908705F
:1041300002E0012078490870E41C2C212046FFF79A
:104140008FFAC6B2402E00DB402640217348FEF7AE
:1041500026F8324621467148FEF708F8A019441C9B
:104160002C212046FFF77CFAC6B2062E00DB06267D
:104170006A48403000210160818032462146FDF7C7
:10418000F5FFA019441C2C212046FFF769FAC6B29E
:10419000082E00DB0826614846300021016041609E
:1041A00032462146FDF7E2FFA019441C2221204699
:1041B000FFF756FAC6B20A2E00DB0A2657484E30E1
:1041C000002101604160018132462146FDF7CEFFAA
:1041D000002001F04DFE802107A8FDF7E0FF4F49C8
:1041E0004E31A1F10800831F4C4A01E0B6E30DE017
:1041F000CDE900014AA107A80AF018FD07A804F0BC
:10420000D3F8042007F070FA03F092FA4AA1289834
:10421000FDF7D0FF0446002C06D00B342C2120469D
:10422000FFF71EFAC6B28DE0DBE000003022010885
:104230004552524F52000000890200200008014000
:104240002B434D515454434F4E4E4C4F535400004A
:104250002A415452454144593A2031002B4352459A
:10426000473A00002B435053493A00004E4F205329
:104270004552564943450000740000204F6E6C695A
:104280006E6500005E0B00202B4350494E3A000043
:1042900052454144590000002B434D544900000051
:1042A0008A0200208D0200200426010822534D5F5F
:1042B00050220000BC0A00202B43504D5300000048
:1042C0002B49504400000000434C4F53454400002C
:1042D0008F020020910200202B434C42533A0000F1
:1042E0002B4353513A2000001F220108760B002077
:1042F0002F636D642F6E62726F6B65722F0000000A
:104300000D0A22002B434D51545452585041594CE0
:104310004F41443A20300000A4000020C012002089
:10432000226E62726F6B6572223A2225732C25739E
:104330002C25732C257322002F636D642F6E617002
:104340006E2F0000202E00DB20262021FE48FDF7E6
:1043500026FF32462146FC48FDF708FFA019441C01
:104360002C212046FFF77CF9C6B2102E00DB102668
:10437000F5480021016241628162C16232462146F4
:104380002030FDF7F3FEA019441C22212046FFF740
:1043900067F9C6B2102E00DB1026EB48002101633E
:1043A00041638163C163324621463030FDF7DEFE52
:1043B000002001F05DFD802107A8FDF7F0FEE24836
:1043C0003030A0F11003E04AE0A1009007A80AF005
:1043D0002DFC07A803F0E8FF042007F085F903F09F
:1043E000A7F9DFA12898FDF7E5FE04465CB304F1C8
:1043F0000A00FDF7F8FED4496839C1F8AC01002085
:1044000001F036FDD0486838D0F8AC01B0F5347F03
:1044100005D94FF43470CC496839C1F8AC0180211A
:1044200007A8FDF7BCFEC8486838D0A1D0F8AC2179
:1044300007A80AF0FBFB07A803F0B6FF042007F06B
:1044400053F903F075F9CCA12898FDF7B3FE0446A3
:10445000F4B1002001F00CFD04F10A00FDF7C3FEE9
:10446000B9496839C1F8B001802107A8FDF797FE66
:10447000B5486838C3A1D0F8B02107A80AF0D6FB28
:1044800007A803F091FF042007F02EF903F050F97C
:10449000BFA12898FDF78EFE04464CB3BFA001F0E3
:1044A000E7FCC1A1204601F039FB802107A8FDF7F8
:1044B00076FEC148007830B904F10A02BFA107A80E
:1044C0000AF0B4FB0EE0BC480078012805D1BEA27A
:1044D000C1A107A80AF0AAFB04E0C2A2BEA107A8D6
:1044E0000AF0A4FB07A803F05FFF042007F0FCF824
:1044F000C0A12898FDF75EFE04462CB3C0A001F0D1
:10450000B7FC0A342046FDF767FEC6B2082E00DB72
:1045100008268D48983000210160416032462146CE
:10452000FDF724FE802107A8FDF739FE864A983260
:10453000B6A107A80AF07AFB07A803F035FF04200C
:1045400007F0D2F803F0F4F8B3A12898FDF732FE93
:10455000044634B3002001F08BFC0A342046FDF7FA
:104560003BFEC6B2082E00DB0826774898300021B3
:104570008160C160324621460830FDF7F7FD042016
:1045800007F0B2F8802107A8FDF709FE6E4AA032B5
:10459000A4A107A80AF04AFB07A803F005FF03F04F
:1045A000C7F8A3A12898FDF705FE04469CB3002098
:1045B00001F05EFC802107A8FDF7F1FD9FA12046D8
:1045C000FDF7F8FD50B101205F49683981F8A80175
:1045D0009CA29EA107A80AF029FB14E09EA12046F8
:1045E000FDF7E8FD50B100205749683981F8A8016E
:1045F0009BA296A107A80AF019FB04E09AA293A136
:1046000007A80AF013FB07A803F0CEFE042007F06A
:104610006BF803F08DF897A12898FDF7CBFD0446C1
:104620009CB3002001F024FC802107A8FDF7B7FD12
:1046300060A12046FDF7BEFD50B101204249683916
:1046400081F8A80100228EA107A80AF0EFFA14E071
:104650008EA12046FDF7AEFD50B100203A496839E1
:1046600081F8A801012286A107A80AF0DFFA04E078
:1046700087A289A107A80AF0D9FA07A803F094FE37
:10468000042007F031F803F053F886A12898FDF7CD
:1046900091FD0446F4B104F10A00FDF7A4FD2A4996
:1046A0006839C1F8B801002001F0E2FB802107A8B9
:1046B000FDF775FD244868387DA1D0F8B82107A81A
:1046C0000AF0B4FA07A803F06FFE042007F00CF814
:1046D00003F02EF879A12898FDF76CFD0446C4B1CB
:1046E00078A12898FDF766FD08B1012027900220E7
:1046F00006F0FAFF204604F017F80490FDF76CFD71
:1047000018B1032006F0F0FF03E00020279903F022
:10471000ABFA6FA12898FDF74DFD044694B16EA148
:104720002898FDF747FD08B101202790022006F0E8
:10473000DBFF204603F0F8FF0490FDF74DFD10B1BC
:104740000320CFE0D5E0D0E080120020226E61701F
:104750006E223A2225732C25732C2573220000002B
:104760002F636D642F677374772F00002267737453
:1047700077223A22256422002F636D642F676374C9
:10478000772F00002267637477223A222564220083
:104790002F636D642F636F64652F00002F636D645A
:1047A0002F636F64650000002F636D642F636F6477
:1047B000652F222A300000007C03002022636F64F2
:1047C00065223A257300000070617373776F72641D
:1047D000207573650000000022636F6465223A2231
:1047E0002573220070617373776F72642065727233
:1047F0006F7200002F636D642F6D6672712F000061
:104800002F636D642F6D667271000000226D6672F9
:1048100071223A22257322002F636D642F74667211
:10482000712F00002274667271223A2225732200D1
:104830002F636D642F757064742F0000226175748E
:104840006F2200006175746F0000000022757064B3
:1048500074223A2225732200226D616E75220000B7
:104860006D616E75000000006572726F7220636D7D
:10487000640000002F636D642F7270746D2F000050
:10488000227270746D223A222564220031000000E9
:104890006572726F72000000227270746D223A228B
:1048A000257322002F636D642F686266712F0000EC
:1048B0002268627271223A22256422002F61747488
:1048C000000000002F6174742F6D6574610000009A
:1048D0002F737473000000002F7374732F6D657451
:1048E0006100000006F000FF03E00220279903F0BA
:1048F000BBF9FDA12898FDF75DFC0446C4B1FCA1FD
:104900002898FDF757FC08B101202790022006F0F7
:10491000EBFE204603F008FF0490FDF75DFC18B1A4
:10492000032006F0E1FE03E00320279903F09CF941
:10493000F2A12898FDF73EFC0446002C0ED0EDA114
:104940002898FDF737FC08B101202790EDA12898A1
:10495000FDF730FC18B1012006F0C6FE9EE0ECA188
:104960002898FDF727FC90B1022006F0BDFE2046F6
:1049700003F0DAFE0490FDF72FFC18B1032006F0D7
:10498000B3FE8BE00020279903F06EF986E0E2A1E8
:104990002898FDF70FFC90B1022006F0A5FE2046F6
:1049A00003F0C2FE0490FDF717FC18B1032006F0D7
:1049B0009BFE73E00120279903F056F96EE0D8A121
:1049C0002898FDF7F7FB90B1022006F08DFE2046F7
:1049D00003F0AAFE0490FDF7FFFB18B1032006F0D8
:1049E00083FE5BE00220279903F03EF956E0CEA15A
:1049F0002898FDF7DFFB90B1022006F075FE2046F7
:104A000003F092FE0490FDF7E7FB18B1032006F0D7
:104A10006BFE43E00320279903F026F93EE0C4A192
:104A20002898FDF7C7FB90B1022006F05DFE2046F6
:104A300003F07AFE0490FDF7CFFB18B1032006F0D7
:104A400053FE2BE00420279903F00EF926E0BAA1CB
:104A50002898FDF7AFFB08B300270EE007EB4702ED
:104A6000B74800EB42012898FDF7A4FB18B138467F
:104A700002F0FCFF06E0781CC7B2B248D0F8500242
:104A8000B842EBD800BFAF48D0F85002B84202D8C5
:104A9000FF2002F0EBFF062006F026FEAAA12898D0
:104AA000FDF788FB0446002C00F0F486A8A12898A6
:104AB000FDF780FB0446002C79D0142004F0BEFAE8
:104AC000AFF2C0712898FDF775FB18B10020A2491C
:104AD000087002E00120A0490870E41D2C21204646
:104AE000FEF7BEFDC6B2402E00DB402640219548B1
:104AF000A830FDF754FB324621469248A830FDF716
:104B000035FBA019441C2C212046FEF7A9FDC6B296
:104B1000062E00DB06268B48E830002101608180EC
:104B200032462146FDF722FBA019441C2C212046C9
:104B3000FEF796FDC6B2082E00DB08268148EE304F
:104B400000210160416032462146FDF70FFBA019AC
:104B5000441C22212046FEF783FDC6B20A2E00DB4C
:104B60000A267848F6300021016041600181324612
:104B70002146FDF7FBFA002001F07AF9802107A811
:104B8000FDF70DFB6F49F631A1F10800831FA0F17D
:104B90004602CDE9000171A107A80AF047F807A86D
:104BA00003F002FC042006F09FFD02F0C1FD71A19C
:104BB0002898FDF7FFFA0446002C72D06FA12898C0
:104BC000FDF7F8FA0446ACB1802107A8FDF7E7FA33
:104BD00009226DA107A8FDF7C9FA07A803F0E4FBB5
:104BE00000205849C1F8D401502155487C38FDF7C0
:104BF000D6FAF0E00020049003905249C1F8D401A5
:104C000050214F487C38FDF7CAFA0020049037E065
:104C1000002003902AE000200190029001AADDE923
:104C2000031003F0F3F9E8B101A92898C01DFDF7BE
:104C3000C1FA0446B4B101A941487C38FDF7BAFA7B
:104C400080B94048D0F8D411D0F8D401401C3D4A76
:104C500001EB4101C2F8D40102F5EC7000EB410018
:104C6000019901600398401CC0B20390494904981F
:104C7000095C03988142CEDC0498401CC0B20490C9
:104C800004980528C4DB802107A8FDF788FA42A113
:104C900003C9CDE907012B48D0F8D40118B3002788
:104CA0001AE09DE007A8FDF797FA07A9084407EB6B
:104CB0004701009022487C3800EB410239A100985E
:104CC00009F0B4FF07A8FDF787FA07A9084437A140
:104CD00009780170781CC7B21A48D0F8D401B842DC
:104CE000E0D807A864E069E02F7374610000000059
:104CF0002F7374612F6D6574610000002267657405
:104D0000223A000066756C6C6461746100000000FA
:104D1000226174740000000022636D6400000000D2
:104D200022737473000000002264746100000000AC
:104D3000226469610000000022616261630000007A
:104D40006C1400201812002022736574223A0000AF
:104D500062726F6B223A0000A40000202262726F20
:104D60006B223A2225732C25732C25732C25732254
:104D70000000000072616D6C223A000072616D6C7F
:104D8000223A5B5D000000002272616D6C223A5B8A
:104D90005D000000942801082272616D6C223A5B6C
:104DA0000000000022257322000000002C000000FB
:104DB000FDF712FA401E07A900220A5407A8FDF7C2
:104DC0000BFA07A90844AFF238010978017007A867
:104DD00003F0EAFA00BF042006F086FC02F0A8FC0B
:104DE000FDA12898FDF7E6F9044604B3A01DFDF7E0
:104DF000FAF90FFA80F8B8F1010F05DBB8F5347F46
:104E000002DAF748C0F8D081802107A8FDF7C7F97A
:104E1000F348F4A1D0F8D02107A809F007FF07A8AC
:104E200003F0C2FA042006F05FFC02F081FCF0A15E
:104E30002898FDF7BFF90446002C6ED0EEA1289803
:104E4000FDF7B8F90446A4B1802107A8FDF7A7F93A
:104E50000922ECA107A8FDF789F907A803F0A4FA35
:104E60000020DF49C1F850023021E948FDF797F9E9
:104E70007FE0002004900390D949C1F8500230210E
:104E8000E348FDF78CF90020049035E00020039002
:104E900028E000200190029001AADDE9031003F050
:104EA000B5F8D8B101A92898C01DFDF783F90446CB
:104EB000A4B101A9D648FDF77DF978B9C848D0F862
:104EC0005012D0F85002401CC54A01EB4101C2F813
:104ED0005002CF4800EB4100019901600398401C4B
:104EE000C0B20390CB490498095C03988142D0DC9E
:104EF0000498401CC0B2049004980528C6DB8021A9
:104F000007A8FDF74CF9C4A103C9CDE90701B448CE
:104F1000D0F8500248B300271BE02FE007A8FDF7A8
:104F20005BF907A9084407EB47010090B84800EB7C
:104F30004102AFF29011009809F078FE07A8FDF742
:104F40004BF907A90844AFF29C1109780170781C4D
:104F5000C7B2A348D0F85002B842DFD807A8FDF77F
:104F60003BF9401E07A900220A5407A803F01CFAC7
:104F700000BF042006F0B8FB02F0DAFBA8A12898D5
:104F8000FDF718F90446CCB300200490A6A12046F2
:104F900000F0C4FD802107A8FDF701F9A5480078BD
:104FA000A0B9E21DA4A107A809F040FE07A8FDF7DB
:104FB00013F9C0B204900498C8B100210498401EAF
:104FC00007AA11540498801E115410E099480078E3
:104FD000012806D1AFF610029AA107A809F026FE13
:104FE00005E0AFF6000297A107A809F01FFE07A889
:104FF00003F0DAF9042006F077FB00BF94A12898AB
:10500000FDF7D8F8044604B3A01DFDF7ECF80FFA3D
:1050100080F8B8F1000F05DDB8F5347F02DA70488A
:10502000C0F8AC81802107A8FDF7B9F86C488AA1C7
:10503000D0F8AC2107A809F0F9FD07A803F0B4F9EE
:10504000042006F051FB02F073FB86A12898FDF7BF
:10505000B1F8044614B3A01DFDF7C5F80FFA80F8A7
:10506000B8F1000F07DD5E48D0F8AC01404502D929
:105070005B48C0F8B081802107A8FDF790F8584838
:105080007AA1D0F8B02107A809F0D0FD07A803F055
:105090008BF9042006F028FB02F04AFB76A1289841
:1050A000FDF788F80446ECB3E41D2C212046FEF7FA
:1050B000D7FAC6B2202E00DB2026202148486830CF
:1050C000FDF76DF83246214645486830FDF74EF849
:1050D000A019441C2C212046FEF7C2FAC6B2102E9D
:1050E00000DB10263E486830002101624162816287
:1050F000C162324621462030FDF738F8A019441C21
:1051000022212046FEF7ACFAC6B2102E00DB102694
:10511000334868300021016341638163C1633246D3
:10512000214600E01AE03030FDF720F8802107A882
:10513000FDF735F82A489830A0F11003A0F13002AD
:10514000AFF6F811009007A809F070FD07A803F06A
:105150002BF9042006F0C8FA02F0EAFA48A12898D0
:10516000FDF728F804466CB3802107A8FDF717F86F
:1051700045A12046FDF71EF868B145A107A809F032
:1051800055FD072008F01CFD322003F057FF0820D2
:1051900008F016FD10E041A12046FDF70BF838B1EC
:1051A00040A107A809F042FD092008F009FD03E02D
:1051B00040A107A809F03AFD07A803F089FA0420E6
:1051C00006F092FA3FA12898FCF7F4FF044614B1C8
:1051D000802107A87AE08CE072616D74223A0000A9
:1051E000181200202272616D74223A2564000000BA
:1051F00061626163223A000061626163223A5B5D31
:10520000000000002261626163223A5B5D000000E1
:105210006C140020942801082261626163223A0024
:105220007075626B223A22007075626B223A222AF4
:10523000300000007C030020227075626B223A224D
:1052400025730000227075626B223A2225732200BA
:1052500067737477223A00002267737477223A25C5
:105260006400000067637477223A00002267637469
:1052700077223A25640000006E61706E223A2200A7
:1052800073776368223A2200226F6E2200000000CA
:105290002273776368223A226F6E2200226F66665D
:1052A000220000002273776368223A226F6666222A
:1052B000000000002273776368223A226572726FE1
:1052C0007222000072656164223A2200FCF767FFD7
:1052D0002046FCF781FF02462146049007A8FCF710
:1052E00045FF07A803F060F8042006F0FDF902F07E
:1052F0001FFAFAA12898FCF75DFF044684B38021C9
:1053000007A8FCF74CFFF7A12046FCF753FF48B174
:105310000120F54981F8A8010022F4A107A809F0AD
:1053200085FC15E0F4A12046FCF744FF48B10020BD
:10533000ED4981F8A8010122ECA107A809F076FC4B
:1053400006E0AFF6B422AFF6B02107A809F06EFC74
:1053500007A803F029F8042006F0C6F902F0E8F9DE
:10536000E6A12898FCF726FF0446C4B1A01DFCF76F
:105370003AFFDD49C1F8B801802107A8FCF70FFF0B
:10538000D948E0A1D0F8B82107A809F04FFC07A838
:1053900003F00AF8042006F0A7F902F0C9F902F0B8
:1053A00007FE0590002772E207F1080205984030D9
:1053B00000EB021001682898FCF7FCFE0446002C64
:1053C00071D0802107A8FCF7EAFEA01DFCF70BFFB7
:1053D00085B21C2F18D2DFE807F00E1825323F4C9B
:1053E0005967747E8B98A5B2BFCCD9F1EFEEEDEC86
:1053F000EBEAE9E8E7E62A46C5A107A809F016FCAA
:105400002946002007F032F938E2032D00DD03259C
:105410002A46C2A107A809F009FC2946012007F085
:1054200025F92BE2022D00DD02252A46BEA107A8A0
:1054300009F0FCFB2946022007F018F91EE2172D9F
:1054400000DD17252A46BBA107A809F0EFFB294676
:10545000032007F00BF911E2172D00DD17252A466E
:10546000B7A107A809F0E2FB2946042007F0FEF8DF
:1054700004E2172D00DD17252A46B4A107A809F07C
:10548000D5FB2946052007F0F1F8F7E1172D00DDDF
:1054900017252A46B0A107A809F0C8FB294606200F
:1054A00007F0E4F8EAE1F0E1012D00DD01252A46EC
:1054B000ACA107A809F0BAFB2946072007F0D6F8E7
:1054C000DCE12A46AAA107A809F0B0FB294608207A
:1054D00007F0CCF8D2E1012D00DD01252A46A7A175
:1054E00007A809F0A3FB29460F2007F0BFF8C5E184
:1054F000062D00DD06252A46A3A107A809F096FB84
:105500002946122007F0B2F8B8E1012D00DD01258F
:105510002A46A0A107A809F089FB2946132007F015
:10552000A5F8ABE1022D00DD02252A469CA107A8C3
:1055300009F07CFB2946142007F098F89EE1012D24
:1055400000DD01252A4699A107A809F06FFB29462D
:10555000152007F08BF891E1012D00DD01252A4689
:1055600095A107A809F062FB2946162007F07EF8EE
:1055700084E1FE2D00DDFE252A4692A107A809F050
:1055800055FB29461E2007F071F877E1B42D00DDA8
:10559000B4252A468EA107A809F048FB29462220F7
:1055A00007F064F86AE15CE14EE18AE079E068E0E6
:1055B0005AE04CE03EE029E014E0FFE7B5F5207F3B
:1055C00001DD4FF42075B5F5FA7F01DA4FF4FA7575
:1055D0002A4682A107A809F029FB2946232007F0C3
:1055E00045F84BE1B5F50C7F01DD4FF40C75B5F5D1
:1055F000FA7F01DA4FF4FA752A467BA107A809F071
:1056000015FB2946242007F031F837E1B5F5207F56
:1056100001DD4FF42075B5F5967F01DA4FF49675EC
:105620002A4674A107A809F001FB2946252007F0A6
:105630001DF823E1642D00DD64252A4670A107A82A
:1056400009F0F4FA2946262007F010F816E1012D9A
:1056500000DD01252A466DA107A809F0E7FA2946D1
:10566000282007F003F809E1632D00DD63252A46B1
:1056700069A107A809F0DAFA29462D2006F0F6FFFD
:10568000FCE00C2D00DD0C25012D00DA01252A4659
:1056900064A107A809F0CAFA29462E2006F0E6FF01
:1056A000ECE01F2D00DD1F25012D00DA01252A4623
:1056B0005FA107A809F0BAFA29462F2006F0D6FF05
:1056C000DCE0172D00DD17252A465CA107A809F0AC
:1056D000ADFA2946302006F0C9FFCFE07270746D34
:1056E000223A00003A300000181200202272707432
:1056F0006D223A25640000003A310000686266714C
:10570000223A00002268626671223A256400000095
:1057100022616F6374223A256400000022616F7376
:1057200073223A25640000002262637373223A25D3
:105730006400000022756F7374223A256400000033
:1057400022756F6574223A25640000002275637328
:1057500074223A25640000002275636574223A259C
:10576000640000002270696D64223A256400000024
:105770002261696D64223A2564000000226C6E6724
:1057800073223A256400000022616F7673223A2565
:105790006400000022616F6673223A2564000000F5
:1057A000226F6C7273223A2564000000226F7472BB
:1057B00073223A256400000022627A6F6E223A2535
:1057C000640000002263617373223A2564000000C4
:1057D000226D786363223A256400000022626263CE
:1057E00076223A25640000002262666376223A251A
:1057F00064000000226C627573223A256400000088
:105800002261636373223A25640000002261676DA0
:1058100064223A25640000002273747973223A25C9
:10582000640000002273746D73223A256400000046
:105830002273746473223A25640000002273746832
:1058400073223A25640000003B2D00DD3B252A46EB
:1058500021A107A809F0EAF92946312006F006FF40
:105860000CE03B2D00DD3B252A461EA107A809F0D0
:10587000DDF92946322006F0F9FE00BF00BF07A877
:1058800002F092FD042005F02FFF781CC7B21C2FF8
:10589000FFF68AADBAF1000F1BD0DAF808100698AF
:1058A000FCF788FC0446A4B1DAF80000162803D1FE
:1058B00017200F49087005E001200E4908700020EC
:1058C0000B490870DAF8100018B1DAF810100698D1
:1058D00088472DB0BDE8F08F2273746D6D223A2594
:1058E000640000002273747373223A256400000080
:1058F00054000020550000202DE9F04107460D46D8
:105900002846FCF769FC00F0FF0809A1384600F0C2
:10591000EFFA044654B1641C22212046FDF7A0FE94
:10592000C6B2324621460348FCF720FCBDE8F081B0
:10593000222B00004A0B00202DE9F04704460D46BB
:105940002846FCF749FCC6B2A0192221FDF788FEC3
:10595000C7B2062F00DB06271448002101608180B2
:10596000A1193A46FCF702FC1148FCF735FC8046C9
:105970002846FCF731FCC0F180090C48FCF72CFCF0
:10598000A9EB0000801E80450BD20948FCF724FCDF
:10599000074900EB0108054B2A4606A1404609F0DD
:1059A00045F901F0C5FEBDE8F087000000130020B6
:1059B000CA0A002025732573222C000030B5A1B03F
:1059C000802101A8FCF7EBFB3E480078C008B0B18D
:1059D0003C48007820F0F8003A49087008464078C2
:1059E000401C487008464078062808DA3648007897
:1059F000FDF7DCFE002141F2883008F0EBFB334874
:105A0000C088334908603348046854E0601E324956
:105A1000085C0D2804D10846005D0A2800D1DCB9D5
:105A20002D48005D3E2817D02B48005D7D2813D0FF
:105A3000A01E2949085C2949097888423AD1601E8C
:105A40002549085C25494978884233D12248005DC0
:105A50002249897888422DD10A2003F0EFFA601C90
:105A60001C490968401A1E49086004211DA009F05C
:105A700093F801A8FCF7B0FB85B2294601A809F00C
:105A80008BF81549134A12688818FCF7A5FB85B2F4
:105A90001149104A12688818294609F07DF80E4904
:105AA0000C4A1268881808490978FEF7ABF9601C9F
:105AB00008490860641C064800688442A6D321B0E7
:105AC00030BD00009C04002054000020080000208D
:105AD0005800002060000020BC060020760B00204B
:105AE0005C00002047534D3A0000000070B50446AA
:105AF0002046FCF771FB85B22946204608F0A4FF3A
:105B0000042104A009F048F82946204609F044F889
:105B100070BD00004D43553A000000002DE9F04FE4
:105B200093B0804689460020049003900290019033
:105B300000907EA14046FCF73DFB08B10120029099
:105B40004846FCF749FBC0B21290129908EB0100DD
:105B50002321FDF785FDC0B21190202105A8FCF797
:105B60001EFB129808EB000405A8109000270EE019
:105B7000E05D202809D0E15D109801701098401C6C
:105B800010900198401CC0B20190781C87B2119807
:105B90008742EDDB6848FCF71FFB82464846FCF76E
:105BA0001BFBC0F1800B05A8FCF716FBABEB00005C
:105BB000801E82450DD2029858B95F48FCF70CFB55
:105BC0005D4900EB010A05AB4A465CA1504609F06D
:105BD0002DF8019814280FDA029868B95648FCF796
:105BE000FBFA55490844A0F1010A56A1504609F0B4
:105BF0001DF813B0BDE8F08F0198142806DA574855
:105C0000407820F00200801C544948700DF11E00BD
:105C100000F09AF9064600208DF81E0005A800F055
:105C200093F90546202105A8FCF7B9FAC5208DF89F
:105C300021006A208DF8220029208DF823000E20F3
:105C40008DF82400FA208DF82500300E8DF82900FB
:105C5000300C8DF82800300A8DF82700F0B28DF84E
:105C60002600280E8DF82D00280C8DF82C00280A0F
:105C70008DF82B00E8B28DF82A000DF12104207B6D
:105C80008DF83700E07A8DF83600A07A8DF835006F
:105C9000607A8DF83400207A8DF83B00E0798DF839
:105CA0003A00A0798DF8390060798DF838002C48D9
:105CB000DDE90D12C0E9141207F088F829480078D0
:105CC000012810D11C48FCF787FA7A2821D21A48FB
:105CD000FCF782FA1849084423A10A6840F8012C0D
:105CE0000979C17015E01F480078022811D11248C7
:105CF000FCF772FA7A280CD20F48FCF76DFA0E49BD
:105D000008441BA10A6840F8012D8A88828089799D
:105D100081711448007800906A460C21022002F03C
:105D200077FB01F005FD00BF63E700002F636D64A2
:105D30002F636F6465000000CA0A00202573257375
:105D4000222C00006973206E6F7420636F7272657D
:105D5000637420666F726D61742E20003A02002019
:105D6000287400207C030020207573652200000049
:105D7000206572726F7222002DE9F04704460D46CD
:105D80002846FCF729FAC6B2A0192221FDF768FCC3
:105D9000C7B2082F00DB0827154800218160C160C9
:105DA000A1193A460830FCF7E1F91248FCF714FA59
:105DB00080462846FCF710FAC0F180090C480830EC
:105DC000FCF70AFAA9EB0000801E80450CD20948B6
:105DD000FCF702FA074900EB0108054B08332A4695
:105DE00005A1404608F022FF01F0A2FCBDE8F087C3
:105DF00018130020CA0A002025732573222C0000E6
:105E000070B51648FCF7E8F90446224613491448D1
:105E1000FCF7ACF93C211348FCF7C1F91248FCF738
:105E2000DBF90446224610490E48FCF79FF90C485E
:105E3000FCF7D2F905460B48FCF7CEF9094944189E
:105E40002A4607492046FCF791F90648FCF7C4F9B1
:105E50000449084405A10988018070BD2874002008
:105E6000760B0020F20B00201F2201082F230000D8
:105E700070B5044614211948FCF791F91848FCF74D
:105E8000ABF905462A4616491448FCF76FF940213C
:105E90001448FCF784F91448FCF79EF905462A4695
:105EA00011491048FCF762F90C48FCF795F90646D1
:105EB0000C48FCF791F90B4945183246074928462A
:105EC000FCF754F94CB10748FCF786F90549451829
:105ED000224606A1284608F0A9FE70BD760B0020D8
:105EE00028740020B20B0020102201082573000046
:105EF0002DE9F04706460F46124800881FFA80F940
:105F00003846FCF769F91FFA80F8002513E00024F1
:105F100007E02819305C395D884200D003E0601C3E
:105F200084B24445F5DB00BF444502D17019BDE899
:105F3000F087681C85B2A9EB0800A842E7DC0020C6
:105F4000F5E700005C0000202DE9F0410546002443
:105F50002846FCF741F9C7B2002600BF0EE0285DD5
:105F6000302802DB285D392800DD09E006EB8600D9
:105F70004600285D30380644601CC4B2BC42EEDBEB
:105F800000BF3046BDE8F081F0B59BB00025002091
:105F90001290002600271190F94C202113A8FCF73D
:105FA000FEF800F09FFB12AA13A9204601F040F86A
:105FB000002877D09DF84800002874D0F148007878
:105FC000001F242838D2DFE800F012384B5E6F76CD
:105FD0007D90A3B4CBFBF9F8F7F6F5F4F3F2F1F00A
:105FE000EFEEEDECEBEAE9E8E7E6E5E4E3E29DF865
:105FF0004800202808DA13AAE3A101A808F016FE39
:10600000E5A101A8FFF78AFDE748007828B920221A
:1060100013A9E648FCF7AAF800E000BFE2480078C0
:10602000E2495C3981F85C013420D6490870E049C6
:106030000870642003F002F832E3DC485C38BDF8F5
:106040004C10A0F87C1011AA0121084601F05CFF59
:10605000BDF84400D749C1F8AC0101F069FB1FE36A
:10606000D2485C38BDF84C10A0F87E1011AA02216D
:10607000012001F049FFBDF84400CE49C1F8B0014C
:1060800001F056FB0CE3202213A9C8482430FCF78A
:106090006DF8C84A68320321012001F035FF01F094
:1060A00047FBFDE20EE3FCE2C0485C38BDF84C1053
:1060B000A0F87E10F4E2202213A9BC484630FCF779
:1060C00055F8EDE2B9485C38BDF84C10A0F8C210A4
:1060D00011AA0621012001F017FFBDF84400B549BF
:1060E00081F8A80101F024FBDAE2B0485C38BDF881
:1060F0004C10A0F8C41011AA0721012001F004FFE0
:10610000BDF84400AB49C1F8B80101F011FBC7E28A
:10611000A6485C38BDF84C10A0F8C61011AA08219A
:10612000012001F0F1FEBDF84410002006F09EFAB7
:10613000B6E29E485C38BDF84C10A0F8C81011AA11
:106140000921012001F0E0FEBDF84400032801DD33
:1061500003201190BDF84410012006F087FA9FE259
:1061600092485C38BDF84C10A0F8CA1011AA0A2158
:10617000012001F0C9FEBDF84400022801DD022023
:106180001190BDF84410022006F070FA88E271E226
:106190005AE243E226E209E2F2E1DBE1C4E1A3E1F3
:1061A00082E161E14AE133E11CE105E1D1E0B9E0DE
:1061B000A1E089E077E05FE047E02FE017E0FFE74C
:1061C0007A485C38BDF84C10A0F8CC1011AA0B210D
:1061D000012001F099FEBDF84400172801DD1720C9
:1061E0001190BDF84410032006F040FA58E26F48C1
:1061F0005C38BDF84C10A0F8CE1011AA0C2101207B
:1062000001F082FEBDF84400172801DD172011902F
:10621000BDF84410042006F029FA41E263485C38D6
:10622000BDF84C10A0F8D01011AA0D21012001F0EA
:106230006BFEBDF84400172801DD17201190BDF852
:106240004410052006F012FA2AE258485C38BDF8DE
:106250004C10A0F8D21011AA0E21012001F054FE1A
:10626000BDF84400172801DD17201190BDF8441037
:10627000062006F0FBF913E24C485C38BDF84C10E0
:10628000A0F8D41011AA0F21012001F03DFEBDF8A5
:106290004400012801DD01201190BDF844100720C1
:1062A00006F0E4F9FCE141485C38BDF84C10A0F878
:1062B000D61011AA1021012001F026FEBDF84410CD
:1062C000082006F0D3F9EBE138485C38BDF84C10F3
:1062D000A0F8D81011AA1121012001F015FEBDF877
:1062E0004400012801DD01201190BDF844100F2069
:1062F00006F0BCF9D4E12D485C38BDF84C10A0F88C
:10630000DA1011AA1221012001F0FEFDBDF84400AF
:10631000062801DD06201190BDF84410122006F079
:10632000A5F9BDE121485C38BDF84C10A0F8DC109F
:1063300011AA1321012001F0E7FDBDF84400012856
:1063400001DD01201190BDF84410132006F08EF9F4
:10635000A6E116485C38BDF84C10A0F8DE1011AA72
:106360001421012001F0D0FDBDF84400022801DD18
:1063700002201190BDF84410142006F077F98FE147
:10638000AE0C0020A60000202F636D642F636F64A5
:10639000652F2225732200002F636D642F636F64C5
:1063A000652F222A300000007C0300203A6700207D
:1063B000A900002018120020C348BDF84C10A0F816
:1063C000E01011AA1521012001F09EFDBDF8440046
:1063D000012801DD01201190BDF84410152006F0C0
:1063E00045F95DE1B848BDF84C10A0F8E21011AADB
:1063F0001621012001F088FDBDF84400012801DDCF
:1064000001201190BDF84410162006F02FF947E145
:10641000AD48BDF84C10A0F8E41011AA17210120D6
:1064200001F072FDBDF84400FE2801DDFE20119050
:10643000BDF844101E2006F019F931E1A248BDF85C
:106440004C10A0F8E61011AA1821012001F05CFD03
:10645000BDF84400B42801DDB4201190BDF844100B
:10646000222006F003F91BE19748BDF84C10A0F874
:10647000E81011AA1921012001F046FDBDF84400E1
:10648000B0F5207F02DD4FF420701190BDF844007C
:10649000B0F5FA7F02DA4FF4FA701190BDF84410AB
:1064A000232006F0E3F8FBE08748BDF84C10A0F885
:1064B000EA1011AA1A21012001F026FDBDF84400BE
:1064C000B0F50C7F02DD4FF40C701190BDF8440064
:1064D000B0F5FA7F02DA4FF4FA701190BDF844106B
:1064E000242006F0C3F8DBE07748BDF84C10A0F894
:1064F000EC1011AA1B21012001F006FDBDF844009B
:10650000B0F5207F02DD4FF420701190BDF84400FB
:10651000B0F5967F02DA4FF496701190BDF84410F2
:10652000252006F0A3F8BBE06748BDF84C10A0F8A2
:10653000EE1011AA1C21012001F0E6FCBDF8440078
:10654000642801DD64201190BDF84410262006F077
:106550008DF8A5E05C48BDF84C10A0F8F01011AA29
:106560001D21012001F0D0FCBDF84400012801DD0F
:1065700001201190BDF84410282006F077F88FE034
:106580005148BDF84C10A0F8F21011AA1E210120AC
:1065900001F0BAFCBDF84400632801DD63201190CE
:1065A000BDF844102D2006F061F879E04648BDF8AA
:1065B0004C10A0F8F41011AA1F21012001F0A4FC36
:1065C000BDF844000C2801DD0C201190BDF84400FA
:1065D000012801DA01201190BDF844102E2006F0A8
:1065E00045F85DE03848BDF84C10A0F8F61011AA47
:1065F0002021012001F088FCBDF844001F2801DDA6
:106600001F201190BDF84400012801DA01201190EB
:10661000BDF844102F2006F029F841E02A48BDF8C3
:106620004C10A0F8F81011AA2121012001F06CFCF7
:10663000BDF84400172801DD17201190BDF8441063
:10664000302006F013F82BE01F48BDF84C10A0F8DE
:10665000FA1011AA2221012001F056FCBDF84400D5
:106660003B2801DD3B201190BDF84410312005F09E
:10667000FDFF15E01448BDF84C10A0F8FC1011AA5D
:106680002321012001F040FCBDF844003B2801DD3E
:106690003B201190BDF84410322005F0E7FF00BF09
:1066A00000BF4FF480710948FBF779FD00200849CD
:1066B000C880064808600748007800F03BF864206E
:1066C00002F0BCFC1BB0F0BDDE660020AE0C00206A
:1066D00000000020A600002001200149087070473A
:1066E000A700002010B510480078E0B10F480088DE
:1066F00020B10E480088401E0C4908800B480088D5
:1067000038B90B4908780978491C094B197000F011
:1067100011F8074800787D2802DD00200449087040
:1067200000200149087010BDA7000020AC00002027
:10673000A900002070B588B004460025002620215D
:106740006846FBF72CFD7E2C00D200E0F0E3DFE88A
:1067500014F07E0086008F009800A000A900B10010
:10676000B900C200CA00D300DB00E300EB00F30075
:10677000FB0003010B0113011B0123012B0133015A
:106780003B0143014B0153015B0163016B01730149
:106790007B0183018B0193019B01A301AB01B30139
:1067A000BB01C301CB01D301DC01E501EE01F7011F
:1067B000FF0107020F0217021F0227022F023702F2
:1067C0003F0247024F0257025E02660273027B02DB
:1067D00083028B0293029B02A302AA02B102B902B6
:1067E000C102C802CF02D602DD02E502ED02F502C7
:1067F000FD0205030D0314031C0323032A033103C5
:1068000038033F0346034D0354035C0364036C03E6
:1068100074037C0384038C0394039B03A303AB03E3
:10682000B303BA03C103C803D003D803E003E803EA
:10683000F003F703FE0305040D0415041C042304F0
:106840002A0432043A0442044A045104580401263A
:106850001422F7496846FBF789FC2025DAE3012674
:106860002022F34914316846FBF780FC2025D1E350
:1068700001262022EE4934316846FBF777FC2025BB
:10688000C8E30126EA48416D0091806D0190202502
:10689000C0E301262022E6495C316846FBF766FC2E
:1068A0002025B7E30126E248B0F87C00ADF80000EF
:1068B0000225AFE30126DE48B0F87E00ADF8000007
:1068C0000225A7E301262022D94980316846FBF73B
:1068D0004DFC20259EE30126D548B0F87E00ADF89A
:1068E0000000022596E301262022D149A231684604
:1068F000FBF73CFC20258DE30126CD48B0F8C20013
:10690000ADF80000022585E30126C948B0F8C400AF
:10691000ADF8000002257DE30126C548B0F8C600A9
:10692000ADF80000022575E30126C148B0F8C800A3
:10693000ADF8000002256DE30126BD48B0F8CA009D
:10694000ADF80000022565E30126B948B0F8CC0097
:10695000ADF8000002255DE30126B548B0F8CE0091
:10696000ADF80000022555E30126B148B0F8D0008B
:10697000ADF8000002254DE30126AD48B0F8D20085
:10698000ADF80000022545E30126A948B0F8D4007F
:10699000ADF8000002253DE30126A548B0F8D60079
:1069A000ADF80000022535E30126A148B0F8D80073
:1069B000ADF8000002252DE301269D48B0F8DA006D
:1069C000ADF80000022525E301269948B0F8DC0067
:1069D000ADF8000002251DE301269548B0F8DE0061
:1069E000ADF80000022515E301269148B0F8E0005B
:1069F000ADF8000002250DE301268D48B0F8E20055
:106A0000ADF80000022505E301268948B0F8E4004E
:106A1000ADF800000225FDE201268548B0F8E60049
:106A2000ADF800000225F5E201268148B0F8E80043
:106A3000ADF800000225EDE201267D48B0F8EA003D
:106A4000ADF800000225E5E201267948B0F8EC0037
:106A5000ADF800000225DDE201267548B0F8EE0031
:106A6000ADF800000225D5E201267148B0F8F0002B
:106A7000ADF800000225CDE201266D48B0F8F20025
:106A8000ADF800000225C5E201266948B0F8F4001F
:106A9000ADF800000225BDE201266548B0F8F60019
:106AA000ADF800000225B5E201266148B0F8F80013
:106AB000ADF800000225ADE201265D48B0F8FA000D
:106AC000ADF800000225A5E201265948B0F8FC0007
:106AD000ADF8000002259DE201265548B0F8FE0001
:106AE000ADF80000022595E20126102251496846C2
:106AF000FBF73CFB20258DE2012610224D49103189
:106B00006846FBF733FB202584E201261022494921
:106B100020316846FBF72AFB20257BE20126102264
:106B2000444930316846FBF721FB202572E20126FB
:106B30001022404940316846FBF718FB202569E2E6
:106B400001263B48B0F85001ADF80000022561E293
:106B500001263748B0F85201ADF80000022559E28D
:106B600001263348B0F85401ADF80000022551E287
:106B700001262F48B0F85601ADF80000022549E281
:106B800001262B48B0F85801ADF80000022541E27B
:106B900001262748B0F85A01ADF80000022539E275
:106BA00001262348B0F85C01ADF80000022531E26F
:106BB00001261F48B0F85E01ADF80000022529E269
:106BC00001261B48B0F86001ADF80000022521E263
:106BD00001261748B0F86201ADF80000022519E25D
:106BE00001261348B0F86401ADF80000022511E257
:106BF00001260F48B0F86601ADF80000022509E251
:106C000001260B48D0F868010090042502E2012615
:106C10000748B0F86C01ADF800000225FAE1012642
:106C20000348B0F86E01ADF800000225F2E1000063
:106C3000DE660020DE6700200126FC48B0F8700107
:106C4000ADF800000225E5E10126F848B0F8720130
:106C5000ADF800000225DDE10126F448B0F874012A
:106C6000ADF800000225D5E10126F048B0F8760124
:106C7000ADF800000225CDE10126EC48B0F878011E
:106C8000ADF800000225C5E10126E848B0F87A0118
:106C9000ADF800000225BDE10126E448D0F87C01F2
:106CA00000900425B6E10126E048D0F8800100906C
:106CB0000425AFE10126DD48B0F88401ADF80000FD
:106CC0000225A7E10126D948B0F88601ADF80000F9
:106CD00002259FE10126D548D0F8880100900425BF
:106CE00098E10126D148D0F88C010090042591E16B
:106CF0000126CE48D0F89001009004258AE10126B3
:106D0000CA48D0F894010090042583E10126C748C1
:106D1000B0F89801ADF8000002257BE10126C348D8
:106D2000B0F89A01ADF80000022573E10126BF48D2
:106D3000B0F89C01ADF8000002256BE10126BB48CC
:106D4000B0F89E01ADF80000022563E10126B748C6
:106D5000B0F8A001ADF8000002255BE10126B348C0
:106D6000B0F8A201ADF80000022553E10126AF48BA
:106D7000D0F8A401009004254CE10126AB48B0F8FE
:106D8000A801ADF80000022544E10126A748D0F88B
:106D9000AA01009004253DE10126A448D0F8AE01E7
:106DA0000090042536E10126A048D0F8B2010090F9
:106DB00004252FE101269D48D0F8B6010090042556
:106DC00028E101269948D0F8BA010090042521E174
:106DD00001269648D0F8BE01009004251AE101264C
:106DE0009248D0F8C2010090042513E101268F4893
:106DF000D0F8C601009004250CE101268B48B0F8BC
:106E0000CA01ADF80000022504E101268748B0F868
:106E1000CC01ADF800000225FCE001268348B0F863
:106E2000CE01ADF800000225F4E001267F48B0F85D
:106E3000D001ADF800000225ECE001267B48B0F857
:106E4000D201ADF800000225E4E001267748B0F851
:106E5000D401ADF800000225DCE001267348B0F84B
:106E6000D601ADF800000225D4E001266F48B0F845
:106E7000D801ADF800000225CCE001266B48D0F81F
:106E8000DA0100900425C5E001266848B0F8DE016B
:106E9000ADF800000225BDE001266448B0F8E0012D
:106EA000ADF800000225B5E001266048B0F8E20127
:106EB000ADF800000225ADE001265C48D0F8E40101
:106EC00000900425A6E001265848D0F8E80100907B
:106ED00004259FE001265548D0F8EC0100900425D8
:106EE00098E001265148B0F8F001ADF80000022505
:106EF00090E001264D48B0F8F201ADF800000225FF
:106F000088E001264948B0F8F401ADF800000225F8
:106F100080E001264548B0F8F601ADF800000225F2
:106F200078E001264148D0F8F8010090042571E08E
:106F30006FE001263D48D0F8FC010090042569E08F
:106F400001263A48D0F800020090042562E00126AC
:106F50003648D0F80402009004255BE0012633484F
:106F6000B0F80802ADF80000022553E001262F48D2
:106F7000B0F80A02ADF8000002254BE001262B48CC
:106F8000D0F80C020090042544E001262748D0F8F0
:106F90001002009004253DE001262448D0F8140298
:106FA0000090042536E001262048B0F81802ADF81C
:106FB000000002252EE001261C48B0F81A02ADF8A8
:106FC0000000022526E001261848B0F81C02ADF8A2
:106FD000000002251EE001261448B0F81E02ADF89C
:106FE0000000022516E001261048D0F8200200908B
:106FF00004250FE001260D48D0F824020090042556
:1070000008E001260948B0F82802ADF80000022582
:1070100000E000BF00BF36B104F18001C8B22A46CB
:10702000694600F041F808B070BD0000DE6600203F
:107030002DE9F04705460E4617464FF00008C146B9
:107040002C462078AA282BD1E078401D6178884210
:1070500026D16078401C00EB05086078401E00EBEC
:1070600005096078801E81B2601C00F097F8B9F8BD
:107070000010884214D1B8F8000045F65B21884220
:107080000ED1E07820B1E278211D3046FBF76EF892
:10709000E0783870A078034908700120BDE8F087D7
:1070A0000020FBE7A6000020FEB506460F46154669
:1070B000AA208DF80000681DC0B28DF801008DF87F
:1070C0000260E8B28DF8030080212448FBF767F8DE
:1070D0002248009901603FB17C2D05DC25B12A468C
:1070E0003946001DFBF742F89DF80100801E81B271
:1070F0001A48401C00F052F8ADF8080045F65B2035
:10710000ADF80A009DF80100401E14490844029998
:10711000016000241BE09DF80100C01C04F108017F
:10712000884205DD0D490819082100F019F808E02A
:107130009DF80120D21C121BD1B2084A101900F090
:107140000FF8022001F07AFF04F10800C4B29DF8A4
:107150000100C01CA042DEDCFEBD00002E0C0020A1
:1071600070B504460D462946204607F031FC70BD37
:1071700000200449C8804FF480708880024808606D
:107180007047000000000020AE0C002001200149E3
:1071900008707047AE00002000BFFEE770B50246E1
:1071A0000C46FF25FF2309E012F8010B80EA0501D8
:1071B0000648405C80EA03050548435C201EA4F1B4
:1071C0000106B4B2F0D145EA032070BD942601084F
:1071D0009427010810B50246002006E013784340CA
:1071E000034CE05C521C4B1ED9B20029F6DC10BDEA
:1071F000C00000200120014908707047B100002044
:107200002DE9F04F91B005460E4617464FF00009A4
:10721000CA46C846C3462846FAF7DEFF81463046CE
:10722000FAF7DAFF824615B10EB14F4503DD0020B3
:1072300011B0BDE8F08F002402E008F10108641CE1
:10724000BC42FADB002406E02A5D58460BF1010B34
:1072500001A90A54641C4C45F6DB002405E0325DAC
:10726000404608F101082A54641C5445F7DB3C46AB
:1072700006E001A8025D404608F101082A54641C9A
:107280004C45F6DB002005F808002846D0E770B52D
:1072900003460A4600200AE00A25B3FBF5F605FB83
:1072A0001635303515540A25B3FBF5F3401C002B79
:1072B000F2D1411E08E0545C451A6D1E555D5554CF
:1072C000451A6D1E5455491E00EBD076B1EB660F82
:1072D000F1DA70BD0120014908707047B00000204C
:1072E00000B589B04FF4C06008F092FF06A90020F5
:1072F00008F0BBFA01A9012008F0B7FA2D4808F000
:1073000015F940F2197008F083FF4FF4006303226F
:107310004821294808F056FD4FF4805303221821D4
:10732000254808F04FFD00208DF81C008DF81D0049
:107330008DF81E008DF81F008DF820008DF82100BB
:107340008DF818008DF8190004208DF81A0002201D
:107350008DF81B000C20ADF8220006A9154808F096
:107360007DF90020ADF80E00ADF810000120ADF859
:1073700012000020ADF80400ADF80600ADF80800DA
:10738000ADF80A00ADF80C0001208DF8140001A83A
:1073900008F0DCF80221074808F0F1F9074903205A
:1073A00008F063FA00221146142008F033FE09B0F9
:1073B00000BD000000640040000801401C050020E2
:1073C00010B5812008F054FF04460C480078A04214
:1073D00011D10B480078062805DA09480078401CCE
:1073E0000749087009E00748407820F00400001DB4
:1073F0000449487001E00148047010BD53020020A8
:10740000500200203A020020012001490870704714
:10741000C10100200148006880B270472C020020A2
:1074200001480078704700003E020020704701B517
:10743000BDF8000000EBC00101EB00104FF6FF713A
:1074400001EAC000009004E0BDF80000401E80B2D8
:107450000090BDF800000028F6D108BD002001E032
:10746000411CC8B21428FBDB704700000120014911
:1074700008707047A00200200148D0F8CC01704786
:1074800018120020014890F8AB0170471812002034
:107490000148D0F8B8017047181200200448D0F80D
:1074A000B001C0EB001080004FF47A714843704780
:1074B000181200200148D0F8D4017047181200209B
:1074C0000348D0F8D0014FF47A7148437047000068
:1074D0001812002010B50548FAF785FE0446C4EBE3
:1074E000041080004FF47A71484310BD201300202F
:1074F0000148D0F8BC0170471812002010B54FF4B5
:1075000023714848FAF74BFE464A4FF42371002096
:1075100000F0EEF84348D0F88802434988427DD015
:1075200040480078FF2805D14FF423713D48FAF711
:1075300036FE05E04FF409713A486830FAF72FFE3D
:10754000982138486830FAF72AFE3848002101604F
:1075500041608160C16098211030FAF720FE0F224F
:1075600033A130486830FAF701FE1C2234A12F48BD
:107570005838FAF7FBFD2D48183839A10A6802601F
:107580000979017138A10A68C0F806208A88428109
:10759000897901730E3036A10A680260496841603A
:1075A0001C2236A15A30FAF7E1FD204890303BA169
:1075B0000A680260097901711A483AA10A68C0F89C
:1075C0009621097980F89A1138A10A68C0F89E219D
:1075D0004968C0F8A2110120124981F8A8010520CC
:1075E00081F8A901C1F8AC010220C1F8B001012065
:1075F000C1F8B8010020C1F8BC011E20C1F8D001BB
:107600000020C1F8D401C1F8500230212A48FAF70D
:10761000C6FD05480349C1F8880200E001E000F01A
:1076200087F810BD181200206745230118130020A9
:107630006F72616E67652E6D326D2E7370656300BB
:107640006D7174742D636C69656E74312E6F6D6E1F
:1076500069766F6C746169632E636F6D0000000062
:107660003138383834000000436C69656E7431007D
:1076700033517470466E4453000000006D71747491
:107680002D666163746F72792E6F6D6E69766F6CA3
:10769000746169632E636F6D000000003138383803
:1076A0003300000041646D696E00000037787A5540
:1076B00056404D54000000006C14002010B50A48DC
:1076C000007880B100200849087005F051FB04469D
:1076D000682221460548FAF749FD044A4FF4237110
:1076E000002000F02BF810BD5802002018120020D6
:1076F00070B504460D461646AAB2A1B23346A02084
:1077000001F015FE70BD000000B50246024880F889
:10771000AB2100F00DF800BD1812002000B50246A4
:107720000248C0F8BC2100F003F800BD1812002088
:107730000120014908707047580200202DE9F041EE
:1077400006460D46174600244FEA551800BF0CE0C8
:1077500007EB441306EB441081B22022A02001F075
:1077600025FE052001F06AFC641C4445F0D305F0B9
:107770001F0048B107EB441305F01F0206EB44104D
:1077800081B2A02001F012FEBDE8F08110B5012009
:1077900008F064F928B1012001F060FC012008F034
:1077A00057F910BD10B54FF4C06008F031FD4FF42B
:1077B000A06008F085FC02221146062008F02AFC91
:1077C0000021012008F0B2FA01220021104608F041
:1077D000E1F8012008F03CF910BD10B5044608F0AE
:1077E00039FA40F2053008F099F94FF4417008F089
:1077F00095F940F2023008F091F9204608F0B4F90A
:1078000040F2053008F08AF94FF4417008F086F92B
:1078100040F2023008F082F908F090F910BD000043
:107820002DE9F04F85B00027B846B946BA46BB46A9
:10783000764806784FF480517548FAF7B0FC142169
:107840006846FAF7ACFC724C7248D0F8500220B18E
:107850007048D0F85002082800D300266EA00078A7
:1078600020702046FAF7B8FC04446A48D0F8500269
:1078700020B16848D0F85002082805D367A269A152
:10788000204607F0D3F908E006EB4601694800EB13
:10789000410264A1204607F0C9F92046FAF79CFC92
:1078A000044465A00168216000792071641D0025F1
:1078B00012E0C6EBC60000EB4620614901EB8000F8
:1078C00050F825205FA1204607F0B0F92046FAF7CE
:1078D00083FC0444681C85B23C2DEADB5AA10A688B
:1078E00044F8012C8A88A4F8032089796171A41DC9
:1078F000002513E0C6EBC60000EB4620504901EB23
:107900008000F03050F825204EA1204607F08EF977
:107910002046FAF761FC0444681C85B23C2DE9DB83
:107920004BA10A6844F8012C8A88A4F803208979BD
:107930006171A41D002514E0C6EBC60000EB4620D3
:107940003F4901EB800000F5F07050F825203DA183
:10795000204607F06BF92046FAF73EFC0444681C09
:1079600085B2182DE8DB3CA10A6844F8012C8A880E
:10797000A4F8032089796171A41D002514E0C6EBE9
:10798000C60000EB46202E4901EB800000F5107088
:1079900050F825202BA1204607F048F92046FAF799
:1079A0001BFC0444681C85B2B5F5B67FE7DD2CA14D
:1079B0000A6844F8012C8A88A4F803208979617147
:1079C000A41D002514E0C6EBC60000EB46201C49B0
:1079D00001EB800000F2F47050F8252019A1204638
:1079E00007F024F92046FAF7F7FB0444681C85B237
:1079F0000A2DE8DB641E1CA0008820800020FEF712
:107A000037FA034805B0BDE8F08F0000600200209F
:107A100004560020181200207B0000006E756C6C6C
:107A2000000000002261626163223A222573222C49
:107A3000000000006C1400202273223A5B0000005A
:107A40002415002025642C005D2C226D223A5B0059
:107A50005D2C2268223A5B005D2C2264223A5B0096
:107A60005D2C2279223A5B005D7D0000014908709F
:107A70007047000060020020F8B54FF480515F4865
:107A8000FAF78DFB5D4E5E49B1F8B41188B200F093
:107A90000BFD5B49B1F8B01188B200F013FD5849F5
:107AA000B1F8AC1188B200F029FD002799E06946D1
:107AB000384600F081FA044604B990E0052F2ED232
:107AC000DFE807F00309121B24004EA001683160B3
:107AD0004068706023E0761E4DA001683160416807
